{
  "_format": "hh-sol-artifact-1",
  "contractName": "SmartContrat",
  "sourceName": "contracts/SmartContrat.sol",
  "abi": [
    {
      "inputs": [
        {
          "internalType": "string",
          "name": "_name",
          "type": "string"
        },
        {
          "internalType": "string",
          "name": "_symbol",
          "type": "string"
        },
        {
          "internalType": "string",
          "name": "_initBaseURI",
          "type": "string"
        }
      ],
      "stateMutability": "nonpayable",
      "type": "constructor"
    },
    {
      "anonymous": false,
      "inputs": [
        {
          "indexed": true,
          "internalType": "address",
          "name": "owner",
          "type": "address"
        },
        {
          "indexed": true,
          "internalType": "address",
          "name": "approved",
          "type": "address"
        },
        {
          "indexed": true,
          "internalType": "uint256",
          "name": "tokenId",
          "type": "uint256"
        }
      ],
      "name": "Approval",
      "type": "event"
    },
    {
      "anonymous": false,
      "inputs": [
        {
          "indexed": true,
          "internalType": "address",
          "name": "owner",
          "type": "address"
        },
        {
          "indexed": true,
          "internalType": "address",
          "name": "operator",
          "type": "address"
        },
        {
          "indexed": false,
          "internalType": "bool",
          "name": "approved",
          "type": "bool"
        }
      ],
      "name": "ApprovalForAll",
      "type": "event"
    },
    {
      "anonymous": false,
      "inputs": [
        {
          "indexed": true,
          "internalType": "address",
          "name": "previousOwner",
          "type": "address"
        },
        {
          "indexed": true,
          "internalType": "address",
          "name": "newOwner",
          "type": "address"
        }
      ],
      "name": "OwnershipTransferred",
      "type": "event"
    },
    {
      "anonymous": false,
      "inputs": [
        {
          "indexed": true,
          "internalType": "address",
          "name": "from",
          "type": "address"
        },
        {
          "indexed": true,
          "internalType": "address",
          "name": "to",
          "type": "address"
        },
        {
          "indexed": true,
          "internalType": "uint256",
          "name": "tokenId",
          "type": "uint256"
        }
      ],
      "name": "Transfer",
      "type": "event"
    },
    {
      "inputs": [
        {
          "internalType": "address",
          "name": "to",
          "type": "address"
        },
        {
          "internalType": "uint256",
          "name": "tokenId",
          "type": "uint256"
        }
      ],
      "name": "approve",
      "outputs": [],
      "stateMutability": "nonpayable",
      "type": "function"
    },
    {
      "inputs": [
        {
          "internalType": "address",
          "name": "owner",
          "type": "address"
        }
      ],
      "name": "balanceOf",
      "outputs": [
        {
          "internalType": "uint256",
          "name": "",
          "type": "uint256"
        }
      ],
      "stateMutability": "view",
      "type": "function"
    },
    {
      "inputs": [],
      "name": "baseExtension",
      "outputs": [
        {
          "internalType": "string",
          "name": "",
          "type": "string"
        }
      ],
      "stateMutability": "view",
      "type": "function"
    },
    {
      "inputs": [],
      "name": "baseURI",
      "outputs": [
        {
          "internalType": "string",
          "name": "",
          "type": "string"
        }
      ],
      "stateMutability": "view",
      "type": "function"
    },
    {
      "inputs": [],
      "name": "cost",
      "outputs": [
        {
          "internalType": "uint256",
          "name": "",
          "type": "uint256"
        }
      ],
      "stateMutability": "view",
      "type": "function"
    },
    {
      "inputs": [
        {
          "internalType": "uint256",
          "name": "tokenId",
          "type": "uint256"
        }
      ],
      "name": "getApproved",
      "outputs": [
        {
          "internalType": "address",
          "name": "",
          "type": "address"
        }
      ],
      "stateMutability": "view",
      "type": "function"
    },
    {
      "inputs": [
        {
          "internalType": "address",
          "name": "owner",
          "type": "address"
        },
        {
          "internalType": "address",
          "name": "operator",
          "type": "address"
        }
      ],
      "name": "isApprovedForAll",
      "outputs": [
        {
          "internalType": "bool",
          "name": "",
          "type": "bool"
        }
      ],
      "stateMutability": "view",
      "type": "function"
    },
    {
      "inputs": [],
      "name": "maxMintAmount",
      "outputs": [
        {
          "internalType": "uint256",
          "name": "",
          "type": "uint256"
        }
      ],
      "stateMutability": "view",
      "type": "function"
    },
    {
      "inputs": [],
      "name": "maxSupply",
      "outputs": [
        {
          "internalType": "uint256",
          "name": "",
          "type": "uint256"
        }
      ],
      "stateMutability": "view",
      "type": "function"
    },
    {
      "inputs": [
        {
          "internalType": "address",
          "name": "_to",
          "type": "address"
        },
        {
          "internalType": "uint256",
          "name": "_edition",
          "type": "uint256"
        }
      ],
      "name": "mint",
      "outputs": [],
      "stateMutability": "payable",
      "type": "function"
    },
    {
      "inputs": [],
      "name": "name",
      "outputs": [
        {
          "internalType": "string",
          "name": "",
          "type": "string"
        }
      ],
      "stateMutability": "view",
      "type": "function"
    },
    {
      "inputs": [
        {
          "internalType": "uint256",
          "name": "",
          "type": "uint256"
        }
      ],
      "name": "nftPrices",
      "outputs": [
        {
          "internalType": "uint256",
          "name": "",
          "type": "uint256"
        }
      ],
      "stateMutability": "view",
      "type": "function"
    },
    {
      "inputs": [],
      "name": "owner",
      "outputs": [
        {
          "internalType": "address",
          "name": "",
          "type": "address"
        }
      ],
      "stateMutability": "view",
      "type": "function"
    },
    {
      "inputs": [
        {
          "internalType": "uint256",
          "name": "tokenId",
          "type": "uint256"
        }
      ],
      "name": "ownerOf",
      "outputs": [
        {
          "internalType": "address",
          "name": "",
          "type": "address"
        }
      ],
      "stateMutability": "view",
      "type": "function"
    },
    {
      "inputs": [
        {
          "internalType": "bool",
          "name": "_state",
          "type": "bool"
        }
      ],
      "name": "pause",
      "outputs": [],
      "stateMutability": "nonpayable",
      "type": "function"
    },
    {
      "inputs": [],
      "name": "paused",
      "outputs": [
        {
          "internalType": "bool",
          "name": "",
          "type": "bool"
        }
      ],
      "stateMutability": "view",
      "type": "function"
    },
    {
      "inputs": [
        {
          "internalType": "address",
          "name": "_user",
          "type": "address"
        }
      ],
      "name": "removeWhitelistUser",
      "outputs": [],
      "stateMutability": "nonpayable",
      "type": "function"
    },
    {
      "inputs": [],
      "name": "renounceOwnership",
      "outputs": [],
      "stateMutability": "nonpayable",
      "type": "function"
    },
    {
      "inputs": [
        {
          "internalType": "address",
          "name": "from",
          "type": "address"
        },
        {
          "internalType": "address",
          "name": "to",
          "type": "address"
        },
        {
          "internalType": "uint256",
          "name": "tokenId",
          "type": "uint256"
        }
      ],
      "name": "safeTransferFrom",
      "outputs": [],
      "stateMutability": "nonpayable",
      "type": "function"
    },
    {
      "inputs": [
        {
          "internalType": "address",
          "name": "from",
          "type": "address"
        },
        {
          "internalType": "address",
          "name": "to",
          "type": "address"
        },
        {
          "internalType": "uint256",
          "name": "tokenId",
          "type": "uint256"
        },
        {
          "internalType": "bytes",
          "name": "data",
          "type": "bytes"
        }
      ],
      "name": "safeTransferFrom",
      "outputs": [],
      "stateMutability": "nonpayable",
      "type": "function"
    },
    {
      "inputs": [
        {
          "internalType": "address",
          "name": "operator",
          "type": "address"
        },
        {
          "internalType": "bool",
          "name": "approved",
          "type": "bool"
        }
      ],
      "name": "setApprovalForAll",
      "outputs": [],
      "stateMutability": "nonpayable",
      "type": "function"
    },
    {
      "inputs": [
        {
          "internalType": "string",
          "name": "_newBaseExtension",
          "type": "string"
        }
      ],
      "name": "setBaseExtension",
      "outputs": [],
      "stateMutability": "nonpayable",
      "type": "function"
    },
    {
      "inputs": [
        {
          "internalType": "string",
          "name": "_newBaseURI",
          "type": "string"
        }
      ],
      "name": "setBaseURI",
      "outputs": [],
      "stateMutability": "nonpayable",
      "type": "function"
    },
    {
      "inputs": [
        {
          "internalType": "uint256",
          "name": "_newCost",
          "type": "uint256"
        }
      ],
      "name": "setCost",
      "outputs": [],
      "stateMutability": "nonpayable",
      "type": "function"
    },
    {
      "inputs": [
        {
          "internalType": "uint256",
          "name": "_nftId",
          "type": "uint256"
        },
        {
          "internalType": "uint256",
          "name": "_price",
          "type": "uint256"
        }
      ],
      "name": "setNftPrice",
      "outputs": [],
      "stateMutability": "nonpayable",
      "type": "function"
    },
    {
      "inputs": [
        {
          "internalType": "uint256",
          "name": "_newmaxMintAmount",
          "type": "uint256"
        }
      ],
      "name": "setmaxMintAmount",
      "outputs": [],
      "stateMutability": "nonpayable",
      "type": "function"
    },
    {
      "inputs": [
        {
          "internalType": "bytes4",
          "name": "interfaceId",
          "type": "bytes4"
        }
      ],
      "name": "supportsInterface",
      "outputs": [
        {
          "internalType": "bool",
          "name": "",
          "type": "bool"
        }
      ],
      "stateMutability": "view",
      "type": "function"
    },
    {
      "inputs": [],
      "name": "symbol",
      "outputs": [
        {
          "internalType": "string",
          "name": "",
          "type": "string"
        }
      ],
      "stateMutability": "view",
      "type": "function"
    },
    {
      "inputs": [
        {
          "internalType": "uint256",
          "name": "index",
          "type": "uint256"
        }
      ],
      "name": "tokenByIndex",
      "outputs": [
        {
          "internalType": "uint256",
          "name": "",
          "type": "uint256"
        }
      ],
      "stateMutability": "view",
      "type": "function"
    },
    {
      "inputs": [
        {
          "internalType": "address",
          "name": "owner",
          "type": "address"
        },
        {
          "internalType": "uint256",
          "name": "index",
          "type": "uint256"
        }
      ],
      "name": "tokenOfOwnerByIndex",
      "outputs": [
        {
          "internalType": "uint256",
          "name": "",
          "type": "uint256"
        }
      ],
      "stateMutability": "view",
      "type": "function"
    },
    {
      "inputs": [
        {
          "internalType": "uint256",
          "name": "tokenId",
          "type": "uint256"
        }
      ],
      "name": "tokenURI",
      "outputs": [
        {
          "internalType": "string",
          "name": "",
          "type": "string"
        }
      ],
      "stateMutability": "view",
      "type": "function"
    },
    {
      "inputs": [],
      "name": "totalSupply",
      "outputs": [
        {
          "internalType": "uint256",
          "name": "",
          "type": "uint256"
        }
      ],
      "stateMutability": "view",
      "type": "function"
    },
    {
      "inputs": [
        {
          "internalType": "address",
          "name": "from",
          "type": "address"
        },
        {
          "internalType": "address",
          "name": "to",
          "type": "address"
        },
        {
          "internalType": "uint256",
          "name": "tokenId",
          "type": "uint256"
        }
      ],
      "name": "transferFrom",
      "outputs": [],
      "stateMutability": "nonpayable",
      "type": "function"
    },
    {
      "inputs": [
        {
          "internalType": "address",
          "name": "newOwner",
          "type": "address"
        }
      ],
      "name": "transferOwnership",
      "outputs": [],
      "stateMutability": "nonpayable",
      "type": "function"
    },
    {
      "inputs": [
        {
          "internalType": "address",
          "name": "_owner",
          "type": "address"
        }
      ],
      "name": "walletOfOwner",
      "outputs": [
        {
          "internalType": "uint256[]",
          "name": "",
          "type": "uint256[]"
        }
      ],
      "stateMutability": "view",
      "type": "function"
    },
    {
      "inputs": [
        {
          "internalType": "address",
          "name": "_user",
          "type": "address"
        }
      ],
      "name": "whitelistUser",
      "outputs": [],
      "stateMutability": "nonpayable",
      "type": "function"
    },
    {
      "inputs": [
        {
          "internalType": "address",
          "name": "",
          "type": "address"
        }
      ],
      "name": "whitelisted",
      "outputs": [
        {
          "internalType": "bool",
          "name": "",
          "type": "bool"
        }
      ],
      "stateMutability": "view",
      "type": "function"
    },
    {
      "inputs": [],
      "name": "withdraw",
      "outputs": [],
      "stateMutability": "payable",
      "type": "function"
    }
  ],
  "bytecode": "0x60806040526040518060400160405280600581526020017f2e6a736f6e000000000000000000000000000000000000000000000000000000815250600c90816200004a91906200121b565b50662386f26fc10000600d556032600e556014600f556000601060006101000a81548160ff0219169083151502179055503480156200008857600080fd5b50604051620061bb380380620061bb8339818101604052810190620000ae919062001466565b82828160009081620000c191906200121b565b508060019081620000d391906200121b565b505050620000f6620000ea6200012360201b60201c565b6200012b60201b60201c565b6200010781620001f160201b60201c565b6200011a3360016200021660201b60201c565b50505062001c74565b600033905090565b6000600a60009054906101000a900473ffffffffffffffffffffffffffffffffffffffff16905081600a60006101000a81548173ffffffffffffffffffffffffffffffffffffffff021916908373ffffffffffffffffffffffffffffffffffffffff1602179055508173ffffffffffffffffffffffffffffffffffffffff168173ffffffffffffffffffffffffffffffffffffffff167f8be0079c531659141344cd1fd0a4f28419497f9722a3daafe3b4186f6b6457e060405160405180910390a35050565b620002016200042560201b60201c565b80600b90816200021291906200121b565b5050565b600062000228620004b660201b60201c565b9050601060009054906101000a900460ff16156200024557600080fd5b600e5481106200028c576040517f08c379a0000000000000000000000000000000000000000000000000000000008152600401620002839062001580565b60405180910390fd5b600e54821115620002d4576040517f08c379a0000000000000000000000000000000000000000000000000000000008152600401620002cb90620015f2565b60405180910390fd5b620002e582620004c360201b60201c565b1562000328576040517f08c379a00000000000000000000000000000000000000000000000000000000081526004016200031f9062001664565b60405180910390fd5b620003386200050c60201b60201c565b73ffffffffffffffffffffffffffffffffffffffff163373ffffffffffffffffffffffffffffffffffffffff16146200040e5760011515601260003373ffffffffffffffffffffffffffffffffffffffff1673ffffffffffffffffffffffffffffffffffffffff16815260200190815260200160002060009054906101000a900460ff161515146200040d57600d543410156200040c576040517f08c379a00000000000000000000000000000000000000000000000000000000081526004016200040390620016d6565b60405180910390fd5b5b5b6200042083836200053660201b60201c565b505050565b620004356200012360201b60201c565b73ffffffffffffffffffffffffffffffffffffffff166200045b6200050c60201b60201c565b73ffffffffffffffffffffffffffffffffffffffff1614620004b4576040517f08c379a0000000000000000000000000000000000000000000000000000000008152600401620004ab9062001748565b60405180910390fd5b565b6000600880549050905090565b60008073ffffffffffffffffffffffffffffffffffffffff16620004ed836200055c60201b60201c565b73ffffffffffffffffffffffffffffffffffffffff1614159050919050565b6000600a60009054906101000a900473ffffffffffffffffffffffffffffffffffffffff16905090565b620005588282604051806020016040528060008152506200059960201b60201c565b5050565b60006002600083815260200190815260200160002060009054906101000a900473ffffffffffffffffffffffffffffffffffffffff169050919050565b620005ab83836200060760201b60201c565b620005c060008484846200084d60201b60201c565b62000602576040517f08c379a0000000000000000000000000000000000000000000000000000000008152600401620005f990620017e0565b60405180910390fd5b505050565b600073ffffffffffffffffffffffffffffffffffffffff168273ffffffffffffffffffffffffffffffffffffffff160362000679576040517f08c379a0000000000000000000000000000000000000000000000000000000008152600401620006709062001852565b60405180910390fd5b6200068a81620004c360201b60201c565b15620006cd576040517f08c379a0000000000000000000000000000000000000000000000000000000008152600401620006c490620018c4565b60405180910390fd5b620006e3600083836001620009f660201b60201c565b620006f481620004c360201b60201c565b1562000737576040517f08c379a00000000000000000000000000000000000000000000000000000000081526004016200072e90620018c4565b60405180910390fd5b6001600360008473ffffffffffffffffffffffffffffffffffffffff1673ffffffffffffffffffffffffffffffffffffffff16815260200190815260200160002060008282540192505081905550816002600083815260200190815260200160002060006101000a81548173ffffffffffffffffffffffffffffffffffffffff021916908373ffffffffffffffffffffffffffffffffffffffff160217905550808273ffffffffffffffffffffffffffffffffffffffff16600073ffffffffffffffffffffffffffffffffffffffff167fddf252ad1be2c89b69c2b068fc378daa952ba7f163c4a11628f55a4df523b3ef60405160405180910390a46200084960008383600162000b8a60201b60201c565b5050565b60006200087b8473ffffffffffffffffffffffffffffffffffffffff1662000b9060201b620017441760201c565b15620009e9578373ffffffffffffffffffffffffffffffffffffffff1663150b7a02620008ad6200012360201b60201c565b8786866040518563ffffffff1660e01b8152600401620008d1949392919062001999565b6020604051808303816000875af19250505080156200091057506040513d601f19601f820116820180604052508101906200090d919062001a4a565b60015b62000998573d806000811462000943576040519150601f19603f3d011682016040523d82523d6000602084013e62000948565b606091505b50600081510362000990576040517f08c379a00000000000000000000000000000000000000000000000000000000081526004016200098790620017e0565b60405180910390fd5b805181602001fd5b63150b7a0260e01b7bffffffffffffffffffffffffffffffffffffffffffffffffffffffff1916817bffffffffffffffffffffffffffffffffffffffffffffffffffffffff191614915050620009ee565b600190505b949350505050565b62000a0f8484848462000bb360201b620017671760201c565b600181111562000a56576040517f08c379a000000000000000000000000000000000000000000000000000000000815260040162000a4d9062001af2565b60405180910390fd5b6000829050600073ffffffffffffffffffffffffffffffffffffffff168573ffffffffffffffffffffffffffffffffffffffff160362000aa75762000aa18162000bb960201b60201c565b62000aef565b8373ffffffffffffffffffffffffffffffffffffffff168573ffffffffffffffffffffffffffffffffffffffff161462000aee5762000aed858262000c0260201b60201c565b5b5b600073ffffffffffffffffffffffffffffffffffffffff168473ffffffffffffffffffffffffffffffffffffffff160362000b3b5762000b358162000d7f60201b60201c565b62000b83565b8473ffffffffffffffffffffffffffffffffffffffff168473ffffffffffffffffffffffffffffffffffffffff161462000b825762000b81848262000e5b60201b60201c565b5b5b5050505050565b50505050565b6000808273ffffffffffffffffffffffffffffffffffffffff163b119050919050565b50505050565b6008805490506009600083815260200190815260200160002081905550600881908060018154018082558091505060019003906000526020600020016000909190919091505550565b6000600162000c1c8462000ee760201b6200121f1760201c565b62000c28919062001b43565b905060006007600084815260200190815260200160002054905081811462000d0e576000600660008673ffffffffffffffffffffffffffffffffffffffff1673ffffffffffffffffffffffffffffffffffffffff168152602001908152602001600020600084815260200190815260200160002054905080600660008773ffffffffffffffffffffffffffffffffffffffff1673ffffffffffffffffffffffffffffffffffffffff168152602001908152602001600020600084815260200190815260200160002081905550816007600083815260200190815260200160002081905550505b6007600084815260200190815260200160002060009055600660008573ffffffffffffffffffffffffffffffffffffffff1673ffffffffffffffffffffffffffffffffffffffff16815260200190815260200160002060008381526020019081526020016000206000905550505050565b6000600160088054905062000d95919062001b43565b905060006009600084815260200190815260200160002054905060006008838154811062000dc85762000dc762001b7e565b5b90600052602060002001549050806008838154811062000ded5762000dec62001b7e565b5b90600052602060002001819055508160096000838152602001908152602001600020819055506009600085815260200190815260200160002060009055600880548062000e3f5762000e3e62001bad565b5b6001900381819060005260206000200160009055905550505050565b600062000e738362000ee760201b6200121f1760201c565b905081600660008573ffffffffffffffffffffffffffffffffffffffff1673ffffffffffffffffffffffffffffffffffffffff168152602001908152602001600020600083815260200190815260200160002081905550806007600084815260200190815260200160002081905550505050565b60008073ffffffffffffffffffffffffffffffffffffffff168273ffffffffffffffffffffffffffffffffffffffff160362000f5a576040517f08c379a000000000000000000000000000000000000000000000000000000000815260040162000f519062001c52565b60405180910390fd5b600360008373ffffffffffffffffffffffffffffffffffffffff1673ffffffffffffffffffffffffffffffffffffffff168152602001908152602001600020549050919050565b600081519050919050565b7f4e487b7100000000000000000000000000000000000000000000000000000000600052604160045260246000fd5b7f4e487b7100000000000000000000000000000000000000000000000000000000600052602260045260246000fd5b600060028204905060018216806200102357607f821691505b60208210810362001039576200103862000fdb565b5b50919050565b60008190508160005260206000209050919050565b60006020601f8301049050919050565b600082821b905092915050565b600060088302620010a37fffffffffffffffffffffffffffffffffffffffffffffffffffffffffffffffff8262001064565b620010af868362001064565b95508019841693508086168417925050509392505050565b6000819050919050565b6000819050919050565b6000620010fc620010f6620010f084620010c7565b620010d1565b620010c7565b9050919050565b6000819050919050565b6200111883620010db565b62001130620011278262001103565b84845462001071565b825550505050565b600090565b6200114762001138565b620011548184846200110d565b505050565b5b818110156200117c57620011706000826200113d565b6001810190506200115a565b5050565b601f821115620011cb5762001195816200103f565b620011a08462001054565b81016020851015620011b0578190505b620011c8620011bf8562001054565b83018262001159565b50505b505050565b600082821c905092915050565b6000620011f060001984600802620011d0565b1980831691505092915050565b60006200120b8383620011dd565b9150826002028217905092915050565b620012268262000fa1565b67ffffffffffffffff81111562001242576200124162000fac565b5b6200124e82546200100a565b6200125b82828562001180565b600060209050601f8311600181146200129357600084156200127e578287015190505b6200128a8582620011fd565b865550620012fa565b601f198416620012a3866200103f565b60005b82811015620012cd57848901518255600182019150602085019450602081019050620012a6565b86831015620012ed5784890151620012e9601f891682620011dd565b8355505b6001600288020188555050505b505050505050565b6000604051905090565b600080fd5b600080fd5b600080fd5b600080fd5b6000601f19601f8301169050919050565b6200133c8262001320565b810181811067ffffffffffffffff821117156200135e576200135d62000fac565b5b80604052505050565b60006200137362001302565b905062001381828262001331565b919050565b600067ffffffffffffffff821115620013a457620013a362000fac565b5b620013af8262001320565b9050602081019050919050565b60005b83811015620013dc578082015181840152602081019050620013bf565b60008484015250505050565b6000620013ff620013f98462001386565b62001367565b9050828152602081018484840111156200141e576200141d6200131b565b5b6200142b848285620013bc565b509392505050565b600082601f8301126200144b576200144a62001316565b5b81516200145d848260208601620013e8565b91505092915050565b6000806000606084860312156200148257620014816200130c565b5b600084015167ffffffffffffffff811115620014a357620014a262001311565b5b620014b18682870162001433565b935050602084015167ffffffffffffffff811115620014d557620014d462001311565b5b620014e38682870162001433565b925050604084015167ffffffffffffffff81111562001507576200150662001311565b5b620015158682870162001433565b9150509250925092565b600082825260208201905092915050565b7f4d6178696d756d20737570706c79207265616368656400000000000000000000600082015250565b6000620015686016836200151f565b9150620015758262001530565b602082019050919050565b600060208201905081810360008301526200159b8162001559565b9050919050565b7f45646974696f6e2065786365656473206d617820737570706c79000000000000600082015250565b6000620015da601a836200151f565b9150620015e782620015a2565b602082019050919050565b600060208201905081810360008301526200160d81620015cb565b9050919050565b7f45646974696f6e20616c7265616479206d696e74656400000000000000000000600082015250565b60006200164c6016836200151f565b9150620016598262001614565b602082019050919050565b600060208201905081810360008301526200167f816200163d565b9050919050565b7f496e73756666696369656e742066756e64730000000000000000000000000000600082015250565b6000620016be6012836200151f565b9150620016cb8262001686565b602082019050919050565b60006020820190508181036000830152620016f181620016af565b9050919050565b7f4f776e61626c653a2063616c6c6572206973206e6f7420746865206f776e6572600082015250565b6000620017306020836200151f565b91506200173d82620016f8565b602082019050919050565b60006020820190508181036000830152620017638162001721565b9050919050565b7f4552433732313a207472616e7366657220746f206e6f6e20455243373231526560008201527f63656976657220696d706c656d656e7465720000000000000000000000000000602082015250565b6000620017c86032836200151f565b9150620017d5826200176a565b604082019050919050565b60006020820190508181036000830152620017fb81620017b9565b9050919050565b7f4552433732313a206d696e7420746f20746865207a65726f2061646472657373600082015250565b60006200183a6020836200151f565b9150620018478262001802565b602082019050919050565b600060208201905081810360008301526200186d816200182b565b9050919050565b7f4552433732313a20746f6b656e20616c7265616479206d696e74656400000000600082015250565b6000620018ac601c836200151f565b9150620018b98262001874565b602082019050919050565b60006020820190508181036000830152620018df816200189d565b9050919050565b600073ffffffffffffffffffffffffffffffffffffffff82169050919050565b60006200191382620018e6565b9050919050565b620019258162001906565b82525050565b6200193681620010c7565b82525050565b600081519050919050565b600082825260208201905092915050565b600062001965826200193c565b62001971818562001947565b935062001983818560208601620013bc565b6200198e8162001320565b840191505092915050565b6000608082019050620019b060008301876200191a565b620019bf60208301866200191a565b620019ce60408301856200192b565b8181036060830152620019e2818462001958565b905095945050505050565b60007fffffffff0000000000000000000000000000000000000000000000000000000082169050919050565b62001a2481620019ed565b811462001a3057600080fd5b50565b60008151905062001a448162001a19565b92915050565b60006020828403121562001a635762001a626200130c565b5b600062001a738482850162001a33565b91505092915050565b7f455243373231456e756d657261626c653a20636f6e736563757469766520747260008201527f616e7366657273206e6f7420737570706f727465640000000000000000000000602082015250565b600062001ada6035836200151f565b915062001ae78262001a7c565b604082019050919050565b6000602082019050818103600083015262001b0d8162001acb565b9050919050565b7f4e487b7100000000000000000000000000000000000000000000000000000000600052601160045260246000fd5b600062001b5082620010c7565b915062001b5d83620010c7565b925082820390508181111562001b785762001b7762001b14565b5b92915050565b7f4e487b7100000000000000000000000000000000000000000000000000000000600052603260045260246000fd5b7f4e487b7100000000000000000000000000000000000000000000000000000000600052603160045260246000fd5b7f4552433732313a2061646472657373207a65726f206973206e6f74206120766160008201527f6c6964206f776e65720000000000000000000000000000000000000000000000602082015250565b600062001c3a6029836200151f565b915062001c478262001bdc565b604082019050919050565b6000602082019050818103600083015262001c6d8162001c2b565b9050919050565b6145378062001c846000396000f3fe6080604052600436106102255760003560e01c80635c975abb11610123578063a22cb465116100ab578063d936547e1161006f578063d936547e146107e9578063d9f10a2b14610826578063da3ef23f14610863578063e985e9c51461088c578063f2fde38b146108c957610225565b8063a22cb46514610704578063b88d4fde1461072d578063c668286214610756578063c87b56dd14610781578063d5abeb01146107be57610225565b8063715018a6116100f2578063715018a6146106455780637a61013f1461065c5780637f00c7a6146106855780638da5cb5b146106ae57806395d89b41146106d957610225565b80635c975abb146105755780636352211e146105a05780636c0360eb146105dd57806370a082311461060857610225565b80632f745c59116101b1578063438b630011610175578063438b63001461048057806344a0d68a146104bd5780634a4c560d146104e65780634f6ccce71461050f57806355f804b31461054c57610225565b80632f745c59146103cb57806330cc7ae0146104085780633ccfd60b1461043157806340c10f191461043b57806342842e0e1461045757610225565b8063095ea7b3116101f8578063095ea7b3146102f857806313faede61461032157806318160ddd1461034c578063239c70ae1461037757806323b872dd146103a257610225565b806301ffc9a71461022a57806302329a291461026757806306fdde0314610290578063081812fc146102bb575b600080fd5b34801561023657600080fd5b50610251600480360381019061024c9190612c83565b6108f2565b60405161025e9190612ccb565b60405180910390f35b34801561027357600080fd5b5061028e60048036038101906102899190612d12565b61096c565b005b34801561029c57600080fd5b506102a5610991565b6040516102b29190612dcf565b60405180910390f35b3480156102c757600080fd5b506102e260048036038101906102dd9190612e27565b610a23565b6040516102ef9190612e95565b60405180910390f35b34801561030457600080fd5b5061031f600480360381019061031a9190612edc565b610a69565b005b34801561032d57600080fd5b50610336610b80565b6040516103439190612f2b565b60405180910390f35b34801561035857600080fd5b50610361610b86565b60405161036e9190612f2b565b60405180910390f35b34801561038357600080fd5b5061038c610b93565b6040516103999190612f2b565b60405180910390f35b3480156103ae57600080fd5b506103c960048036038101906103c49190612f46565b610b99565b005b3480156103d757600080fd5b506103f260048036038101906103ed9190612edc565b610bf9565b6040516103ff9190612f2b565b60405180910390f35b34801561041457600080fd5b5061042f600480360381019061042a9190612f99565b610c9e565b005b610439610d01565b005b61045560048036038101906104509190612edc565b610d49565b005b34801561046357600080fd5b5061047e60048036038101906104799190612f46565b610f29565b005b34801561048c57600080fd5b506104a760048036038101906104a29190612f99565b610f49565b6040516104b49190613084565b60405180910390f35b3480156104c957600080fd5b506104e460048036038101906104df9190612e27565b610ff7565b005b3480156104f257600080fd5b5061050d60048036038101906105089190612f99565b611009565b005b34801561051b57600080fd5b5061053660048036038101906105319190612e27565b61106c565b6040516105439190612f2b565b60405180910390f35b34801561055857600080fd5b50610573600480360381019061056e91906131db565b6110dd565b005b34801561058157600080fd5b5061058a6110f8565b6040516105979190612ccb565b60405180910390f35b3480156105ac57600080fd5b506105c760048036038101906105c29190612e27565b61110b565b6040516105d49190612e95565b60405180910390f35b3480156105e957600080fd5b506105f2611191565b6040516105ff9190612dcf565b60405180910390f35b34801561061457600080fd5b5061062f600480360381019061062a9190612f99565b61121f565b60405161063c9190612f2b565b60405180910390f35b34801561065157600080fd5b5061065a6112d6565b005b34801561066857600080fd5b50610683600480360381019061067e9190613224565b6112ea565b005b34801561069157600080fd5b506106ac60048036038101906106a79190612e27565b611356565b005b3480156106ba57600080fd5b506106c3611368565b6040516106d09190612e95565b60405180910390f35b3480156106e557600080fd5b506106ee611392565b6040516106fb9190612dcf565b60405180910390f35b34801561071057600080fd5b5061072b60048036038101906107269190613264565b611424565b005b34801561073957600080fd5b50610754600480360381019061074f9190613345565b61143a565b005b34801561076257600080fd5b5061076b61149c565b6040516107789190612dcf565b60405180910390f35b34801561078d57600080fd5b506107a860048036038101906107a39190612e27565b61152a565b6040516107b59190612dcf565b60405180910390f35b3480156107ca57600080fd5b506107d36115d4565b6040516107e09190612f2b565b60405180910390f35b3480156107f557600080fd5b50610810600480360381019061080b9190612f99565b6115da565b60405161081d9190612ccb565b60405180910390f35b34801561083257600080fd5b5061084d60048036038101906108489190612e27565b6115fa565b60405161085a9190612f2b565b60405180910390f35b34801561086f57600080fd5b5061088a600480360381019061088591906131db565b611612565b005b34801561089857600080fd5b506108b360048036038101906108ae91906133c8565b61162d565b6040516108c09190612ccb565b60405180910390f35b3480156108d557600080fd5b506108f060048036038101906108eb9190612f99565b6116c1565b005b60007f780e9d63000000000000000000000000000000000000000000000000000000007bffffffffffffffffffffffffffffffffffffffffffffffffffffffff1916827bffffffffffffffffffffffffffffffffffffffffffffffffffffffff1916148061096557506109648261176d565b5b9050919050565b61097461184f565b80601060006101000a81548160ff02191690831515021790555050565b6060600080546109a090613437565b80601f01602080910402602001604051908101604052809291908181526020018280546109cc90613437565b8015610a195780601f106109ee57610100808354040283529160200191610a19565b820191906000526020600020905b8154815290600101906020018083116109fc57829003601f168201915b5050505050905090565b6000610a2e826118cd565b6004600083815260200190815260200160002060009054906101000a900473ffffffffffffffffffffffffffffffffffffffff169050919050565b6000610a748261110b565b90508073ffffffffffffffffffffffffffffffffffffffff168373ffffffffffffffffffffffffffffffffffffffff1603610ae4576040517f08c379a0000000000000000000000000000000000000000000000000000000008152600401610adb906134da565b60405180910390fd5b8073ffffffffffffffffffffffffffffffffffffffff16610b03611918565b73ffffffffffffffffffffffffffffffffffffffff161480610b325750610b3181610b2c611918565b61162d565b5b610b71576040517f08c379a0000000000000000000000000000000000000000000000000000000008152600401610b689061356c565b60405180910390fd5b610b7b8383611920565b505050565b600d5481565b6000600880549050905090565b600f5481565b610baa610ba4611918565b826119d9565b610be9576040517f08c379a0000000000000000000000000000000000000000000000000000000008152600401610be0906135fe565b60405180910390fd5b610bf4838383611a6e565b505050565b6000610c048361121f565b8210610c45576040517f08c379a0000000000000000000000000000000000000000000000000000000008152600401610c3c90613690565b60405180910390fd5b600660008473ffffffffffffffffffffffffffffffffffffffff1673ffffffffffffffffffffffffffffffffffffffff168152602001908152602001600020600083815260200190815260200160002054905092915050565b610ca661184f565b6000601260008373ffffffffffffffffffffffffffffffffffffffff1673ffffffffffffffffffffffffffffffffffffffff16815260200190815260200160002060006101000a81548160ff02191690831515021790555050565b610d0961184f565b3373ffffffffffffffffffffffffffffffffffffffff166108fc479081150290604051600060405180830381858888f19350505050610d4757600080fd5b565b6000610d53610b86565b9050601060009054906101000a900460ff1615610d6f57600080fd5b600e548110610db3576040517f08c379a0000000000000000000000000000000000000000000000000000000008152600401610daa906136fc565b60405180910390fd5b600e54821115610df8576040517f08c379a0000000000000000000000000000000000000000000000000000000008152600401610def90613768565b60405180910390fd5b610e0182611d67565b15610e41576040517f08c379a0000000000000000000000000000000000000000000000000000000008152600401610e38906137d4565b60405180910390fd5b610e49611368565b73ffffffffffffffffffffffffffffffffffffffff163373ffffffffffffffffffffffffffffffffffffffff1614610f1a5760011515601260003373ffffffffffffffffffffffffffffffffffffffff1673ffffffffffffffffffffffffffffffffffffffff16815260200190815260200160002060009054906101000a900460ff16151514610f1957600d54341015610f18576040517f08c379a0000000000000000000000000000000000000000000000000000000008152600401610f0f90613840565b60405180910390fd5b5b5b610f248383611da8565b505050565b610f448383836040518060200160405280600081525061143a565b505050565b60606000610f568361121f565b905060008167ffffffffffffffff811115610f7457610f736130b0565b5b604051908082528060200260200182016040528015610fa25781602001602082028036833780820191505090505b50905060005b82811015610fec57610fba8582610bf9565b828281518110610fcd57610fcc613860565b5b6020026020010181815250508080610fe4906138be565b915050610fa8565b508092505050919050565b610fff61184f565b80600d8190555050565b61101161184f565b6001601260008373ffffffffffffffffffffffffffffffffffffffff1673ffffffffffffffffffffffffffffffffffffffff16815260200190815260200160002060006101000a81548160ff02191690831515021790555050565b6000611076610b86565b82106110b7576040517f08c379a00000000000000000000000000000000000000000000000000000000081526004016110ae90613978565b60405180910390fd5b600882815481106110cb576110ca613860565b5b90600052602060002001549050919050565b6110e561184f565b80600b90816110f49190613b44565b5050565b601060009054906101000a900460ff1681565b60008061111783611dc6565b9050600073ffffffffffffffffffffffffffffffffffffffff168173ffffffffffffffffffffffffffffffffffffffff1603611188576040517f08c379a000000000000000000000000000000000000000000000000000000000815260040161117f90613c62565b60405180910390fd5b80915050919050565b600b805461119e90613437565b80601f01602080910402602001604051908101604052809291908181526020018280546111ca90613437565b80156112175780601f106111ec57610100808354040283529160200191611217565b820191906000526020600020905b8154815290600101906020018083116111fa57829003601f168201915b505050505081565b60008073ffffffffffffffffffffffffffffffffffffffff168273ffffffffffffffffffffffffffffffffffffffff160361128f576040517f08c379a000000000000000000000000000000000000000000000000000000000815260040161128690613cf4565b60405180910390fd5b600360008373ffffffffffffffffffffffffffffffffffffffff1673ffffffffffffffffffffffffffffffffffffffff168152602001908152602001600020549050919050565b6112de61184f565b6112e86000611e03565b565b6112f261184f565b6112fb82611d67565b61133a576040517f08c379a000000000000000000000000000000000000000000000000000000000815260040161133190613d60565b60405180910390fd5b8060116000848152602001908152602001600020819055505050565b61135e61184f565b80600f8190555050565b6000600a60009054906101000a900473ffffffffffffffffffffffffffffffffffffffff16905090565b6060600180546113a190613437565b80601f01602080910402602001604051908101604052809291908181526020018280546113cd90613437565b801561141a5780601f106113ef5761010080835404028352916020019161141a565b820191906000526020600020905b8154815290600101906020018083116113fd57829003601f168201915b5050505050905090565b61143661142f611918565b8383611ec9565b5050565b61144b611445611918565b836119d9565b61148a576040517f08c379a0000000000000000000000000000000000000000000000000000000008152600401611481906135fe565b60405180910390fd5b61149684848484612035565b50505050565b600c80546114a990613437565b80601f01602080910402602001604051908101604052809291908181526020018280546114d590613437565b80156115225780601f106114f757610100808354040283529160200191611522565b820191906000526020600020905b81548152906001019060200180831161150557829003601f168201915b505050505081565b606061153582611d67565b611574576040517f08c379a000000000000000000000000000000000000000000000000000000000815260040161156b90613df2565b60405180910390fd5b600061157e612091565b9050600081511161159e57604051806020016040528060008152506115cc565b806115a884612123565b600c6040516020016115bc93929190613ed1565b6040516020818303038152906040525b915050919050565b600e5481565b60126020528060005260406000206000915054906101000a900460ff1681565b60116020528060005260406000206000915090505481565b61161a61184f565b80600c90816116299190613b44565b5050565b6000600560008473ffffffffffffffffffffffffffffffffffffffff1673ffffffffffffffffffffffffffffffffffffffff16815260200190815260200160002060008373ffffffffffffffffffffffffffffffffffffffff1673ffffffffffffffffffffffffffffffffffffffff16815260200190815260200160002060009054906101000a900460ff16905092915050565b6116c961184f565b600073ffffffffffffffffffffffffffffffffffffffff168173ffffffffffffffffffffffffffffffffffffffff1603611738576040517f08c379a000000000000000000000000000000000000000000000000000000000815260040161172f90613f74565b60405180910390fd5b61174181611e03565b50565b6000808273ffffffffffffffffffffffffffffffffffffffff163b119050919050565b50505050565b60007f80ac58cd000000000000000000000000000000000000000000000000000000007bffffffffffffffffffffffffffffffffffffffffffffffffffffffff1916827bffffffffffffffffffffffffffffffffffffffffffffffffffffffff1916148061183857507f5b5e139f000000000000000000000000000000000000000000000000000000007bffffffffffffffffffffffffffffffffffffffffffffffffffffffff1916827bffffffffffffffffffffffffffffffffffffffffffffffffffffffff1916145b806118485750611847826121f1565b5b9050919050565b611857611918565b73ffffffffffffffffffffffffffffffffffffffff16611875611368565b73ffffffffffffffffffffffffffffffffffffffff16146118cb576040517f08c379a00000000000000000000000000000000000000000000000000000000081526004016118c290613fe0565b60405180910390fd5b565b6118d681611d67565b611915576040517f08c379a000000000000000000000000000000000000000000000000000000000815260040161190c90613c62565b60405180910390fd5b50565b600033905090565b816004600083815260200190815260200160002060006101000a81548173ffffffffffffffffffffffffffffffffffffffff021916908373ffffffffffffffffffffffffffffffffffffffff160217905550808273ffffffffffffffffffffffffffffffffffffffff166119938361110b565b73ffffffffffffffffffffffffffffffffffffffff167f8c5be1e5ebec7d5bd14f71427d1e84f3dd0314c0f7b2291e5b200ac8c7c3b92560405160405180910390a45050565b6000806119e58361110b565b90508073ffffffffffffffffffffffffffffffffffffffff168473ffffffffffffffffffffffffffffffffffffffff161480611a275750611a26818561162d565b5b80611a6557508373ffffffffffffffffffffffffffffffffffffffff16611a4d84610a23565b73ffffffffffffffffffffffffffffffffffffffff16145b91505092915050565b8273ffffffffffffffffffffffffffffffffffffffff16611a8e8261110b565b73ffffffffffffffffffffffffffffffffffffffff1614611ae4576040517f08c379a0000000000000000000000000000000000000000000000000000000008152600401611adb90614072565b60405180910390fd5b600073ffffffffffffffffffffffffffffffffffffffff168273ffffffffffffffffffffffffffffffffffffffff1603611b53576040517f08c379a0000000000000000000000000000000000000000000000000000000008152600401611b4a90614104565b60405180910390fd5b611b60838383600161225b565b8273ffffffffffffffffffffffffffffffffffffffff16611b808261110b565b73ffffffffffffffffffffffffffffffffffffffff1614611bd6576040517f08c379a0000000000000000000000000000000000000000000000000000000008152600401611bcd90614072565b60405180910390fd5b6004600082815260200190815260200160002060006101000a81549073ffffffffffffffffffffffffffffffffffffffff02191690556001600360008573ffffffffffffffffffffffffffffffffffffffff1673ffffffffffffffffffffffffffffffffffffffff168152602001908152602001600020600082825403925050819055506001600360008473ffffffffffffffffffffffffffffffffffffffff1673ffffffffffffffffffffffffffffffffffffffff16815260200190815260200160002060008282540192505081905550816002600083815260200190815260200160002060006101000a81548173ffffffffffffffffffffffffffffffffffffffff021916908373ffffffffffffffffffffffffffffffffffffffff160217905550808273ffffffffffffffffffffffffffffffffffffffff168473ffffffffffffffffffffffffffffffffffffffff167fddf252ad1be2c89b69c2b068fc378daa952ba7f163c4a11628f55a4df523b3ef60405160405180910390a4611d6283838360016123b9565b505050565b60008073ffffffffffffffffffffffffffffffffffffffff16611d8983611dc6565b73ffffffffffffffffffffffffffffffffffffffff1614159050919050565b611dc28282604051806020016040528060008152506123bf565b5050565b60006002600083815260200190815260200160002060009054906101000a900473ffffffffffffffffffffffffffffffffffffffff169050919050565b6000600a60009054906101000a900473ffffffffffffffffffffffffffffffffffffffff16905081600a60006101000a81548173ffffffffffffffffffffffffffffffffffffffff021916908373ffffffffffffffffffffffffffffffffffffffff1602179055508173ffffffffffffffffffffffffffffffffffffffff168173ffffffffffffffffffffffffffffffffffffffff167f8be0079c531659141344cd1fd0a4f28419497f9722a3daafe3b4186f6b6457e060405160405180910390a35050565b8173ffffffffffffffffffffffffffffffffffffffff168373ffffffffffffffffffffffffffffffffffffffff1603611f37576040517f08c379a0000000000000000000000000000000000000000000000000000000008152600401611f2e90614170565b60405180910390fd5b80600560008573ffffffffffffffffffffffffffffffffffffffff1673ffffffffffffffffffffffffffffffffffffffff16815260200190815260200160002060008473ffffffffffffffffffffffffffffffffffffffff1673ffffffffffffffffffffffffffffffffffffffff16815260200190815260200160002060006101000a81548160ff0219169083151502179055508173ffffffffffffffffffffffffffffffffffffffff168373ffffffffffffffffffffffffffffffffffffffff167f17307eab39ab6107e8899845ad3d59bd9653f200f220920489ca2b5937696c31836040516120289190612ccb565b60405180910390a3505050565b612040848484611a6e565b61204c8484848461241a565b61208b576040517f08c379a000000000000000000000000000000000000000000000000000000000815260040161208290614202565b60405180910390fd5b50505050565b6060600b80546120a090613437565b80601f01602080910402602001604051908101604052809291908181526020018280546120cc90613437565b80156121195780601f106120ee57610100808354040283529160200191612119565b820191906000526020600020905b8154815290600101906020018083116120fc57829003601f168201915b5050505050905090565b606060006001612132846125a1565b01905060008167ffffffffffffffff811115612151576121506130b0565b5b6040519080825280601f01601f1916602001820160405280156121835781602001600182028036833780820191505090505b509050600082602001820190505b6001156121e6578080600190039150507f3031323334353637383961626364656600000000000000000000000000000000600a86061a8153600a85816121da576121d9614222565b5b04945060008503612191575b819350505050919050565b60007f01ffc9a7000000000000000000000000000000000000000000000000000000007bffffffffffffffffffffffffffffffffffffffffffffffffffffffff1916827bffffffffffffffffffffffffffffffffffffffffffffffffffffffff1916149050919050565b61226784848484611767565b60018111156122ab576040517f08c379a00000000000000000000000000000000000000000000000000000000081526004016122a2906142c3565b60405180910390fd5b6000829050600073ffffffffffffffffffffffffffffffffffffffff168573ffffffffffffffffffffffffffffffffffffffff16036122f2576122ed816126f4565b612331565b8373ffffffffffffffffffffffffffffffffffffffff168573ffffffffffffffffffffffffffffffffffffffff16146123305761232f858261273d565b5b5b600073ffffffffffffffffffffffffffffffffffffffff168473ffffffffffffffffffffffffffffffffffffffff16036123735761236e816128aa565b6123b2565b8473ffffffffffffffffffffffffffffffffffffffff168473ffffffffffffffffffffffffffffffffffffffff16146123b1576123b0848261297b565b5b5b5050505050565b50505050565b6123c983836129fa565b6123d6600084848461241a565b612415576040517f08c379a000000000000000000000000000000000000000000000000000000000815260040161240c90614202565b60405180910390fd5b505050565b600061243b8473ffffffffffffffffffffffffffffffffffffffff16611744565b15612594578373ffffffffffffffffffffffffffffffffffffffff1663150b7a02612464611918565b8786866040518563ffffffff1660e01b81526004016124869493929190614338565b6020604051808303816000875af19250505080156124c257506040513d601f19601f820116820180604052508101906124bf9190614399565b60015b612544573d80600081146124f2576040519150601f19603f3d011682016040523d82523d6000602084013e6124f7565b606091505b50600081510361253c576040517f08c379a000000000000000000000000000000000000000000000000000000000815260040161253390614202565b60405180910390fd5b805181602001fd5b63150b7a0260e01b7bffffffffffffffffffffffffffffffffffffffffffffffffffffffff1916817bffffffffffffffffffffffffffffffffffffffffffffffffffffffff191614915050612599565b600190505b949350505050565b600080600090507a184f03e93ff9f4daa797ed6e38ed64bf6a1f01000000000000000083106125ff577a184f03e93ff9f4daa797ed6e38ed64bf6a1f01000000000000000083816125f5576125f4614222565b5b0492506040810190505b6d04ee2d6d415b85acef8100000000831061263c576d04ee2d6d415b85acef8100000000838161263257612631614222565b5b0492506020810190505b662386f26fc10000831061266b57662386f26fc10000838161266157612660614222565b5b0492506010810190505b6305f5e1008310612694576305f5e100838161268a57612689614222565b5b0492506008810190505b61271083106126b95761271083816126af576126ae614222565b5b0492506004810190505b606483106126dc57606483816126d2576126d1614222565b5b0492506002810190505b600a83106126eb576001810190505b80915050919050565b6008805490506009600083815260200190815260200160002081905550600881908060018154018082558091505060019003906000526020600020016000909190919091505550565b6000600161274a8461121f565b61275491906143c6565b9050600060076000848152602001908152602001600020549050818114612839576000600660008673ffffffffffffffffffffffffffffffffffffffff1673ffffffffffffffffffffffffffffffffffffffff168152602001908152602001600020600084815260200190815260200160002054905080600660008773ffffffffffffffffffffffffffffffffffffffff1673ffffffffffffffffffffffffffffffffffffffff168152602001908152602001600020600084815260200190815260200160002081905550816007600083815260200190815260200160002081905550505b6007600084815260200190815260200160002060009055600660008573ffffffffffffffffffffffffffffffffffffffff1673ffffffffffffffffffffffffffffffffffffffff16815260200190815260200160002060008381526020019081526020016000206000905550505050565b600060016008805490506128be91906143c6565b90506000600960008481526020019081526020016000205490506000600883815481106128ee576128ed613860565b5b9060005260206000200154905080600883815481106129105761290f613860565b5b90600052602060002001819055508160096000838152602001908152602001600020819055506009600085815260200190815260200160002060009055600880548061295f5761295e6143fa565b5b6001900381819060005260206000200160009055905550505050565b60006129868361121f565b905081600660008573ffffffffffffffffffffffffffffffffffffffff1673ffffffffffffffffffffffffffffffffffffffff168152602001908152602001600020600083815260200190815260200160002081905550806007600084815260200190815260200160002081905550505050565b600073ffffffffffffffffffffffffffffffffffffffff168273ffffffffffffffffffffffffffffffffffffffff1603612a69576040517f08c379a0000000000000000000000000000000000000000000000000000000008152600401612a6090614475565b60405180910390fd5b612a7281611d67565b15612ab2576040517f08c379a0000000000000000000000000000000000000000000000000000000008152600401612aa9906144e1565b60405180910390fd5b612ac060008383600161225b565b612ac981611d67565b15612b09576040517f08c379a0000000000000000000000000000000000000000000000000000000008152600401612b00906144e1565b60405180910390fd5b6001600360008473ffffffffffffffffffffffffffffffffffffffff1673ffffffffffffffffffffffffffffffffffffffff16815260200190815260200160002060008282540192505081905550816002600083815260200190815260200160002060006101000a81548173ffffffffffffffffffffffffffffffffffffffff021916908373ffffffffffffffffffffffffffffffffffffffff160217905550808273ffffffffffffffffffffffffffffffffffffffff16600073ffffffffffffffffffffffffffffffffffffffff167fddf252ad1be2c89b69c2b068fc378daa952ba7f163c4a11628f55a4df523b3ef60405160405180910390a4612c136000838360016123b9565b5050565b6000604051905090565b600080fd5b600080fd5b60007fffffffff0000000000000000000000000000000000000000000000000000000082169050919050565b612c6081612c2b565b8114612c6b57600080fd5b50565b600081359050612c7d81612c57565b92915050565b600060208284031215612c9957612c98612c21565b5b6000612ca784828501612c6e565b91505092915050565b60008115159050919050565b612cc581612cb0565b82525050565b6000602082019050612ce06000830184612cbc565b92915050565b612cef81612cb0565b8114612cfa57600080fd5b50565b600081359050612d0c81612ce6565b92915050565b600060208284031215612d2857612d27612c21565b5b6000612d3684828501612cfd565b91505092915050565b600081519050919050565b600082825260208201905092915050565b60005b83811015612d79578082015181840152602081019050612d5e565b60008484015250505050565b6000601f19601f8301169050919050565b6000612da182612d3f565b612dab8185612d4a565b9350612dbb818560208601612d5b565b612dc481612d85565b840191505092915050565b60006020820190508181036000830152612de98184612d96565b905092915050565b6000819050919050565b612e0481612df1565b8114612e0f57600080fd5b50565b600081359050612e2181612dfb565b92915050565b600060208284031215612e3d57612e3c612c21565b5b6000612e4b84828501612e12565b91505092915050565b600073ffffffffffffffffffffffffffffffffffffffff82169050919050565b6000612e7f82612e54565b9050919050565b612e8f81612e74565b82525050565b6000602082019050612eaa6000830184612e86565b92915050565b612eb981612e74565b8114612ec457600080fd5b50565b600081359050612ed681612eb0565b92915050565b60008060408385031215612ef357612ef2612c21565b5b6000612f0185828601612ec7565b9250506020612f1285828601612e12565b9150509250929050565b612f2581612df1565b82525050565b6000602082019050612f406000830184612f1c565b92915050565b600080600060608486031215612f5f57612f5e612c21565b5b6000612f6d86828701612ec7565b9350506020612f7e86828701612ec7565b9250506040612f8f86828701612e12565b9150509250925092565b600060208284031215612faf57612fae612c21565b5b6000612fbd84828501612ec7565b91505092915050565b600081519050919050565b600082825260208201905092915050565b6000819050602082019050919050565b612ffb81612df1565b82525050565b600061300d8383612ff2565b60208301905092915050565b6000602082019050919050565b600061303182612fc6565b61303b8185612fd1565b935061304683612fe2565b8060005b8381101561307757815161305e8882613001565b975061306983613019565b92505060018101905061304a565b5085935050505092915050565b6000602082019050818103600083015261309e8184613026565b905092915050565b600080fd5b600080fd5b7f4e487b7100000000000000000000000000000000000000000000000000000000600052604160045260246000fd5b6130e882612d85565b810181811067ffffffffffffffff82111715613107576131066130b0565b5b80604052505050565b600061311a612c17565b905061312682826130df565b919050565b600067ffffffffffffffff821115613146576131456130b0565b5b61314f82612d85565b9050602081019050919050565b82818337600083830152505050565b600061317e6131798461312b565b613110565b90508281526020810184848401111561319a576131996130ab565b5b6131a584828561315c565b509392505050565b600082601f8301126131c2576131c16130a6565b5b81356131d284826020860161316b565b91505092915050565b6000602082840312156131f1576131f0612c21565b5b600082013567ffffffffffffffff81111561320f5761320e612c26565b5b61321b848285016131ad565b91505092915050565b6000806040838503121561323b5761323a612c21565b5b600061324985828601612e12565b925050602061325a85828601612e12565b9150509250929050565b6000806040838503121561327b5761327a612c21565b5b600061328985828601612ec7565b925050602061329a85828601612cfd565b9150509250929050565b600067ffffffffffffffff8211156132bf576132be6130b0565b5b6132c882612d85565b9050602081019050919050565b60006132e86132e3846132a4565b613110565b905082815260208101848484011115613304576133036130ab565b5b61330f84828561315c565b509392505050565b600082601f83011261332c5761332b6130a6565b5b813561333c8482602086016132d5565b91505092915050565b6000806000806080858703121561335f5761335e612c21565b5b600061336d87828801612ec7565b945050602061337e87828801612ec7565b935050604061338f87828801612e12565b925050606085013567ffffffffffffffff8111156133b0576133af612c26565b5b6133bc87828801613317565b91505092959194509250565b600080604083850312156133df576133de612c21565b5b60006133ed85828601612ec7565b92505060206133fe85828601612ec7565b9150509250929050565b7f4e487b7100000000000000000000000000000000000000000000000000000000600052602260045260246000fd5b6000600282049050600182168061344f57607f821691505b60208210810361346257613461613408565b5b50919050565b7f4552433732313a20617070726f76616c20746f2063757272656e74206f776e6560008201527f7200000000000000000000000000000000000000000000000000000000000000602082015250565b60006134c4602183612d4a565b91506134cf82613468565b604082019050919050565b600060208201905081810360008301526134f3816134b7565b9050919050565b7f4552433732313a20617070726f76652063616c6c6572206973206e6f7420746f60008201527f6b656e206f776e6572206f7220617070726f76656420666f7220616c6c000000602082015250565b6000613556603d83612d4a565b9150613561826134fa565b604082019050919050565b6000602082019050818103600083015261358581613549565b9050919050565b7f4552433732313a2063616c6c6572206973206e6f7420746f6b656e206f776e6560008201527f72206f7220617070726f76656400000000000000000000000000000000000000602082015250565b60006135e8602d83612d4a565b91506135f38261358c565b604082019050919050565b60006020820190508181036000830152613617816135db565b9050919050565b7f455243373231456e756d657261626c653a206f776e657220696e646578206f7560008201527f74206f6620626f756e6473000000000000000000000000000000000000000000602082015250565b600061367a602b83612d4a565b91506136858261361e565b604082019050919050565b600060208201905081810360008301526136a98161366d565b9050919050565b7f4d6178696d756d20737570706c79207265616368656400000000000000000000600082015250565b60006136e6601683612d4a565b91506136f1826136b0565b602082019050919050565b60006020820190508181036000830152613715816136d9565b9050919050565b7f45646974696f6e2065786365656473206d617820737570706c79000000000000600082015250565b6000613752601a83612d4a565b915061375d8261371c565b602082019050919050565b6000602082019050818103600083015261378181613745565b9050919050565b7f45646974696f6e20616c7265616479206d696e74656400000000000000000000600082015250565b60006137be601683612d4a565b91506137c982613788565b602082019050919050565b600060208201905081810360008301526137ed816137b1565b9050919050565b7f496e73756666696369656e742066756e64730000000000000000000000000000600082015250565b600061382a601283612d4a565b9150613835826137f4565b602082019050919050565b600060208201905081810360008301526138598161381d565b9050919050565b7f4e487b7100000000000000000000000000000000000000000000000000000000600052603260045260246000fd5b7f4e487b7100000000000000000000000000000000000000000000000000000000600052601160045260246000fd5b60006138c982612df1565b91507fffffffffffffffffffffffffffffffffffffffffffffffffffffffffffffffff82036138fb576138fa61388f565b5b600182019050919050565b7f455243373231456e756d657261626c653a20676c6f62616c20696e646578206f60008201527f7574206f6620626f756e64730000000000000000000000000000000000000000602082015250565b6000613962602c83612d4a565b915061396d82613906565b604082019050919050565b6000602082019050818103600083015261399181613955565b9050919050565b60008190508160005260206000209050919050565b60006020601f8301049050919050565b600082821b905092915050565b6000600883026139fa7fffffffffffffffffffffffffffffffffffffffffffffffffffffffffffffffff826139bd565b613a0486836139bd565b95508019841693508086168417925050509392505050565b6000819050919050565b6000613a41613a3c613a3784612df1565b613a1c565b612df1565b9050919050565b6000819050919050565b613a5b83613a26565b613a6f613a6782613a48565b8484546139ca565b825550505050565b600090565b613a84613a77565b613a8f818484613a52565b505050565b5b81811015613ab357613aa8600082613a7c565b600181019050613a95565b5050565b601f821115613af857613ac981613998565b613ad2846139ad565b81016020851015613ae1578190505b613af5613aed856139ad565b830182613a94565b50505b505050565b600082821c905092915050565b6000613b1b60001984600802613afd565b1980831691505092915050565b6000613b348383613b0a565b9150826002028217905092915050565b613b4d82612d3f565b67ffffffffffffffff811115613b6657613b656130b0565b5b613b708254613437565b613b7b828285613ab7565b600060209050601f831160018114613bae5760008415613b9c578287015190505b613ba68582613b28565b865550613c0e565b601f198416613bbc86613998565b60005b82811015613be457848901518255600182019150602085019450602081019050613bbf565b86831015613c015784890151613bfd601f891682613b0a565b8355505b6001600288020188555050505b505050505050565b7f4552433732313a20696e76616c696420746f6b656e2049440000000000000000600082015250565b6000613c4c601883612d4a565b9150613c5782613c16565b602082019050919050565b60006020820190508181036000830152613c7b81613c3f565b9050919050565b7f4552433732313a2061646472657373207a65726f206973206e6f74206120766160008201527f6c6964206f776e65720000000000000000000000000000000000000000000000602082015250565b6000613cde602983612d4a565b9150613ce982613c82565b604082019050919050565b60006020820190508181036000830152613d0d81613cd1565b9050919050565b7f4e465420646f6573206e6f742065786973740000000000000000000000000000600082015250565b6000613d4a601283612d4a565b9150613d5582613d14565b602082019050919050565b60006020820190508181036000830152613d7981613d3d565b9050919050565b7f4552433732314d657461646174613a2055524920717565727920666f72206e6f60008201527f6e6578697374656e7420746f6b656e0000000000000000000000000000000000602082015250565b6000613ddc602f83612d4a565b9150613de782613d80565b604082019050919050565b60006020820190508181036000830152613e0b81613dcf565b9050919050565b600081905092915050565b6000613e2882612d3f565b613e328185613e12565b9350613e42818560208601612d5b565b80840191505092915050565b60008154613e5b81613437565b613e658186613e12565b94506001821660008114613e805760018114613e9557613ec8565b60ff1983168652811515820286019350613ec8565b613e9e85613998565b60005b83811015613ec057815481890152600182019150602081019050613ea1565b838801955050505b50505092915050565b6000613edd8286613e1d565b9150613ee98285613e1d565b9150613ef58284613e4e565b9150819050949350505050565b7f4f776e61626c653a206e6577206f776e657220697320746865207a65726f206160008201527f6464726573730000000000000000000000000000000000000000000000000000602082015250565b6000613f5e602683612d4a565b9150613f6982613f02565b604082019050919050565b60006020820190508181036000830152613f8d81613f51565b9050919050565b7f4f776e61626c653a2063616c6c6572206973206e6f7420746865206f776e6572600082015250565b6000613fca602083612d4a565b9150613fd582613f94565b602082019050919050565b60006020820190508181036000830152613ff981613fbd565b9050919050565b7f4552433732313a207472616e736665722066726f6d20696e636f72726563742060008201527f6f776e6572000000000000000000000000000000000000000000000000000000602082015250565b600061405c602583612d4a565b915061406782614000565b604082019050919050565b6000602082019050818103600083015261408b8161404f565b9050919050565b7f4552433732313a207472616e7366657220746f20746865207a65726f2061646460008201527f7265737300000000000000000000000000000000000000000000000000000000602082015250565b60006140ee602483612d4a565b91506140f982614092565b604082019050919050565b6000602082019050818103600083015261411d816140e1565b9050919050565b7f4552433732313a20617070726f766520746f2063616c6c657200000000000000600082015250565b600061415a601983612d4a565b915061416582614124565b602082019050919050565b600060208201905081810360008301526141898161414d565b9050919050565b7f4552433732313a207472616e7366657220746f206e6f6e20455243373231526560008201527f63656976657220696d706c656d656e7465720000000000000000000000000000602082015250565b60006141ec603283612d4a565b91506141f782614190565b604082019050919050565b6000602082019050818103600083015261421b816141df565b9050919050565b7f4e487b7100000000000000000000000000000000000000000000000000000000600052601260045260246000fd5b7f455243373231456e756d657261626c653a20636f6e736563757469766520747260008201527f616e7366657273206e6f7420737570706f727465640000000000000000000000602082015250565b60006142ad603583612d4a565b91506142b882614251565b604082019050919050565b600060208201905081810360008301526142dc816142a0565b9050919050565b600081519050919050565b600082825260208201905092915050565b600061430a826142e3565b61431481856142ee565b9350614324818560208601612d5b565b61432d81612d85565b840191505092915050565b600060808201905061434d6000830187612e86565b61435a6020830186612e86565b6143676040830185612f1c565b818103606083015261437981846142ff565b905095945050505050565b60008151905061439381612c57565b92915050565b6000602082840312156143af576143ae612c21565b5b60006143bd84828501614384565b91505092915050565b60006143d182612df1565b91506143dc83612df1565b92508282039050818111156143f4576143f361388f565b5b92915050565b7f4e487b7100000000000000000000000000000000000000000000000000000000600052603160045260246000fd5b7f4552433732313a206d696e7420746f20746865207a65726f2061646472657373600082015250565b600061445f602083612d4a565b915061446a82614429565b602082019050919050565b6000602082019050818103600083015261448e81614452565b9050919050565b7f4552433732313a20746f6b656e20616c7265616479206d696e74656400000000600082015250565b60006144cb601c83612d4a565b91506144d682614495565b602082019050919050565b600060208201905081810360008301526144fa816144be565b905091905056fea26469706673582212204edc04adeceea903dbe844c2f576d13ba42794703318aaf9d96a3e7b1f6876ff64736f6c63430008120033",
  "linkReferences": {},
  "deployedLinkReferences": {}
}