{
  "_format": "hh-sol-artifact-1",
  "contractName": "SmartContrat",
  "sourceName": "contracts/SmartContrat.sol",
  "abi": [
    {
      "inputs": [
        {
          "internalType": "string",
          "name": "_name",
          "type": "string"
        },
        {
          "internalType": "string",
          "name": "_symbol",
          "type": "string"
        },
        {
          "internalType": "string",
          "name": "_initBaseURI",
          "type": "string"
        }
      ],
      "stateMutability": "nonpayable",
      "type": "constructor"
    },
    {
      "anonymous": false,
      "inputs": [
        {
          "indexed": true,
          "internalType": "address",
          "name": "owner",
          "type": "address"
        },
        {
          "indexed": true,
          "internalType": "address",
          "name": "approved",
          "type": "address"
        },
        {
          "indexed": true,
          "internalType": "uint256",
          "name": "tokenId",
          "type": "uint256"
        }
      ],
      "name": "Approval",
      "type": "event"
    },
    {
      "anonymous": false,
      "inputs": [
        {
          "indexed": true,
          "internalType": "address",
          "name": "owner",
          "type": "address"
        },
        {
          "indexed": true,
          "internalType": "address",
          "name": "operator",
          "type": "address"
        },
        {
          "indexed": false,
          "internalType": "bool",
          "name": "approved",
          "type": "bool"
        }
      ],
      "name": "ApprovalForAll",
      "type": "event"
    },
    {
      "anonymous": false,
      "inputs": [
        {
          "indexed": true,
          "internalType": "address",
          "name": "previousOwner",
          "type": "address"
        },
        {
          "indexed": true,
          "internalType": "address",
          "name": "newOwner",
          "type": "address"
        }
      ],
      "name": "OwnershipTransferred",
      "type": "event"
    },
    {
      "anonymous": false,
      "inputs": [
        {
          "indexed": true,
          "internalType": "address",
          "name": "from",
          "type": "address"
        },
        {
          "indexed": true,
          "internalType": "address",
          "name": "to",
          "type": "address"
        },
        {
          "indexed": true,
          "internalType": "uint256",
          "name": "tokenId",
          "type": "uint256"
        }
      ],
      "name": "Transfer",
      "type": "event"
    },
    {
      "inputs": [
        {
          "internalType": "address",
          "name": "to",
          "type": "address"
        },
        {
          "internalType": "uint256",
          "name": "tokenId",
          "type": "uint256"
        }
      ],
      "name": "approve",
      "outputs": [],
      "stateMutability": "nonpayable",
      "type": "function"
    },
    {
      "inputs": [
        {
          "internalType": "address",
          "name": "owner",
          "type": "address"
        }
      ],
      "name": "balanceOf",
      "outputs": [
        {
          "internalType": "uint256",
          "name": "",
          "type": "uint256"
        }
      ],
      "stateMutability": "view",
      "type": "function"
    },
    {
      "inputs": [],
      "name": "baseExtension",
      "outputs": [
        {
          "internalType": "string",
          "name": "",
          "type": "string"
        }
      ],
      "stateMutability": "view",
      "type": "function"
    },
    {
      "inputs": [],
      "name": "baseURI",
      "outputs": [
        {
          "internalType": "string",
          "name": "",
          "type": "string"
        }
      ],
      "stateMutability": "view",
      "type": "function"
    },
    {
      "inputs": [],
      "name": "cost",
      "outputs": [
        {
          "internalType": "uint256",
          "name": "",
          "type": "uint256"
        }
      ],
      "stateMutability": "view",
      "type": "function"
    },
    {
      "inputs": [
        {
          "internalType": "uint256",
          "name": "tokenId",
          "type": "uint256"
        }
      ],
      "name": "getApproved",
      "outputs": [
        {
          "internalType": "address",
          "name": "",
          "type": "address"
        }
      ],
      "stateMutability": "view",
      "type": "function"
    },
    {
      "inputs": [
        {
          "internalType": "address",
          "name": "owner",
          "type": "address"
        },
        {
          "internalType": "address",
          "name": "operator",
          "type": "address"
        }
      ],
      "name": "isApprovedForAll",
      "outputs": [
        {
          "internalType": "bool",
          "name": "",
          "type": "bool"
        }
      ],
      "stateMutability": "view",
      "type": "function"
    },
    {
      "inputs": [],
      "name": "maxMintAmount",
      "outputs": [
        {
          "internalType": "uint256",
          "name": "",
          "type": "uint256"
        }
      ],
      "stateMutability": "view",
      "type": "function"
    },
    {
      "inputs": [],
      "name": "maxSupply",
      "outputs": [
        {
          "internalType": "uint256",
          "name": "",
          "type": "uint256"
        }
      ],
      "stateMutability": "view",
      "type": "function"
    },
    {
      "inputs": [
        {
          "internalType": "address",
          "name": "_to",
          "type": "address"
        },
        {
          "internalType": "uint256",
          "name": "_edition",
          "type": "uint256"
        }
      ],
      "name": "mint",
      "outputs": [],
      "stateMutability": "payable",
      "type": "function"
    },
    {
      "inputs": [],
      "name": "name",
      "outputs": [
        {
          "internalType": "string",
          "name": "",
          "type": "string"
        }
      ],
      "stateMutability": "view",
      "type": "function"
    },
    {
      "inputs": [
        {
          "internalType": "uint256",
          "name": "",
          "type": "uint256"
        }
      ],
      "name": "nftEditionToId",
      "outputs": [
        {
          "internalType": "uint256",
          "name": "",
          "type": "uint256"
        }
      ],
      "stateMutability": "view",
      "type": "function"
    },
    {
      "inputs": [
        {
          "internalType": "uint256",
          "name": "",
          "type": "uint256"
        }
      ],
      "name": "nftPrices",
      "outputs": [
        {
          "internalType": "uint256",
          "name": "",
          "type": "uint256"
        }
      ],
      "stateMutability": "view",
      "type": "function"
    },
    {
      "inputs": [],
      "name": "owner",
      "outputs": [
        {
          "internalType": "address",
          "name": "",
          "type": "address"
        }
      ],
      "stateMutability": "view",
      "type": "function"
    },
    {
      "inputs": [
        {
          "internalType": "uint256",
          "name": "tokenId",
          "type": "uint256"
        }
      ],
      "name": "ownerOf",
      "outputs": [
        {
          "internalType": "address",
          "name": "",
          "type": "address"
        }
      ],
      "stateMutability": "view",
      "type": "function"
    },
    {
      "inputs": [
        {
          "internalType": "bool",
          "name": "_state",
          "type": "bool"
        }
      ],
      "name": "pause",
      "outputs": [],
      "stateMutability": "nonpayable",
      "type": "function"
    },
    {
      "inputs": [],
      "name": "paused",
      "outputs": [
        {
          "internalType": "bool",
          "name": "",
          "type": "bool"
        }
      ],
      "stateMutability": "view",
      "type": "function"
    },
    {
      "inputs": [
        {
          "internalType": "address",
          "name": "_user",
          "type": "address"
        }
      ],
      "name": "removeWhitelistUser",
      "outputs": [],
      "stateMutability": "nonpayable",
      "type": "function"
    },
    {
      "inputs": [],
      "name": "renounceOwnership",
      "outputs": [],
      "stateMutability": "nonpayable",
      "type": "function"
    },
    {
      "inputs": [
        {
          "internalType": "address",
          "name": "from",
          "type": "address"
        },
        {
          "internalType": "address",
          "name": "to",
          "type": "address"
        },
        {
          "internalType": "uint256",
          "name": "tokenId",
          "type": "uint256"
        }
      ],
      "name": "safeTransferFrom",
      "outputs": [],
      "stateMutability": "nonpayable",
      "type": "function"
    },
    {
      "inputs": [
        {
          "internalType": "address",
          "name": "from",
          "type": "address"
        },
        {
          "internalType": "address",
          "name": "to",
          "type": "address"
        },
        {
          "internalType": "uint256",
          "name": "tokenId",
          "type": "uint256"
        },
        {
          "internalType": "bytes",
          "name": "data",
          "type": "bytes"
        }
      ],
      "name": "safeTransferFrom",
      "outputs": [],
      "stateMutability": "nonpayable",
      "type": "function"
    },
    {
      "inputs": [
        {
          "internalType": "address",
          "name": "operator",
          "type": "address"
        },
        {
          "internalType": "bool",
          "name": "approved",
          "type": "bool"
        }
      ],
      "name": "setApprovalForAll",
      "outputs": [],
      "stateMutability": "nonpayable",
      "type": "function"
    },
    {
      "inputs": [
        {
          "internalType": "string",
          "name": "_newBaseExtension",
          "type": "string"
        }
      ],
      "name": "setBaseExtension",
      "outputs": [],
      "stateMutability": "nonpayable",
      "type": "function"
    },
    {
      "inputs": [
        {
          "internalType": "string",
          "name": "_newBaseURI",
          "type": "string"
        }
      ],
      "name": "setBaseURI",
      "outputs": [],
      "stateMutability": "nonpayable",
      "type": "function"
    },
    {
      "inputs": [
        {
          "internalType": "uint256",
          "name": "_newCost",
          "type": "uint256"
        }
      ],
      "name": "setCost",
      "outputs": [],
      "stateMutability": "nonpayable",
      "type": "function"
    },
    {
      "inputs": [
        {
          "internalType": "uint256",
          "name": "_edition",
          "type": "uint256"
        },
        {
          "internalType": "uint256",
          "name": "_price",
          "type": "uint256"
        }
      ],
      "name": "setNftSpecificPrice",
      "outputs": [],
      "stateMutability": "nonpayable",
      "type": "function"
    },
    {
      "inputs": [
        {
          "internalType": "uint256",
          "name": "_newmaxMintAmount",
          "type": "uint256"
        }
      ],
      "name": "setmaxMintAmount",
      "outputs": [],
      "stateMutability": "nonpayable",
      "type": "function"
    },
    {
      "inputs": [
        {
          "internalType": "bytes4",
          "name": "interfaceId",
          "type": "bytes4"
        }
      ],
      "name": "supportsInterface",
      "outputs": [
        {
          "internalType": "bool",
          "name": "",
          "type": "bool"
        }
      ],
      "stateMutability": "view",
      "type": "function"
    },
    {
      "inputs": [],
      "name": "symbol",
      "outputs": [
        {
          "internalType": "string",
          "name": "",
          "type": "string"
        }
      ],
      "stateMutability": "view",
      "type": "function"
    },
    {
      "inputs": [
        {
          "internalType": "uint256",
          "name": "index",
          "type": "uint256"
        }
      ],
      "name": "tokenByIndex",
      "outputs": [
        {
          "internalType": "uint256",
          "name": "",
          "type": "uint256"
        }
      ],
      "stateMutability": "view",
      "type": "function"
    },
    {
      "inputs": [
        {
          "internalType": "address",
          "name": "owner",
          "type": "address"
        },
        {
          "internalType": "uint256",
          "name": "index",
          "type": "uint256"
        }
      ],
      "name": "tokenOfOwnerByIndex",
      "outputs": [
        {
          "internalType": "uint256",
          "name": "",
          "type": "uint256"
        }
      ],
      "stateMutability": "view",
      "type": "function"
    },
    {
      "inputs": [
        {
          "internalType": "uint256",
          "name": "tokenId",
          "type": "uint256"
        }
      ],
      "name": "tokenURI",
      "outputs": [
        {
          "internalType": "string",
          "name": "",
          "type": "string"
        }
      ],
      "stateMutability": "view",
      "type": "function"
    },
    {
      "inputs": [],
      "name": "totalSupply",
      "outputs": [
        {
          "internalType": "uint256",
          "name": "",
          "type": "uint256"
        }
      ],
      "stateMutability": "view",
      "type": "function"
    },
    {
      "inputs": [
        {
          "internalType": "address",
          "name": "from",
          "type": "address"
        },
        {
          "internalType": "address",
          "name": "to",
          "type": "address"
        },
        {
          "internalType": "uint256",
          "name": "tokenId",
          "type": "uint256"
        }
      ],
      "name": "transferFrom",
      "outputs": [],
      "stateMutability": "nonpayable",
      "type": "function"
    },
    {
      "inputs": [
        {
          "internalType": "address",
          "name": "newOwner",
          "type": "address"
        }
      ],
      "name": "transferOwnership",
      "outputs": [],
      "stateMutability": "nonpayable",
      "type": "function"
    },
    {
      "inputs": [
        {
          "internalType": "address",
          "name": "_owner",
          "type": "address"
        }
      ],
      "name": "walletOfOwner",
      "outputs": [
        {
          "internalType": "uint256[]",
          "name": "",
          "type": "uint256[]"
        }
      ],
      "stateMutability": "view",
      "type": "function"
    },
    {
      "inputs": [
        {
          "internalType": "address",
          "name": "_user",
          "type": "address"
        }
      ],
      "name": "whitelistUser",
      "outputs": [],
      "stateMutability": "nonpayable",
      "type": "function"
    },
    {
      "inputs": [
        {
          "internalType": "address",
          "name": "",
          "type": "address"
        }
      ],
      "name": "whitelisted",
      "outputs": [
        {
          "internalType": "bool",
          "name": "",
          "type": "bool"
        }
      ],
      "stateMutability": "view",
      "type": "function"
    },
    {
      "inputs": [],
      "name": "withdraw",
      "outputs": [],
      "stateMutability": "payable",
      "type": "function"
    }
  ],
  "bytecode": "0x60806040526040518060400160405280600581526020017f2e6a736f6e000000000000000000000000000000000000000000000000000000815250600c90816200004a919062001255565b50662386f26fc10000600d556032600e556014600f556000601060006101000a81548160ff0219169083151502179055503480156200008857600080fd5b50604051620062ce380380620062ce8339818101604052810190620000ae9190620014a0565b82828160009081620000c1919062001255565b508060019081620000d3919062001255565b505050620000f6620000ea6200012360201b60201c565b6200012b60201b60201c565b6200010781620001f160201b60201c565b6200011a3360016200021660201b60201c565b50505062001cae565b600033905090565b6000600a60009054906101000a900473ffffffffffffffffffffffffffffffffffffffff16905081600a60006101000a81548173ffffffffffffffffffffffffffffffffffffffff021916908373ffffffffffffffffffffffffffffffffffffffff1602179055508173ffffffffffffffffffffffffffffffffffffffff168173ffffffffffffffffffffffffffffffffffffffff167f8be0079c531659141344cd1fd0a4f28419497f9722a3daafe3b4186f6b6457e060405160405180910390a35050565b620002016200045f60201b60201c565b80600b908162000212919062001255565b5050565b600062000228620004f060201b60201c565b9050601060009054906101000a900460ff16156200024557600080fd5b600e5481106200028c576040517f08c379a00000000000000000000000000000000000000000000000000000000081526004016200028390620015ba565b60405180910390fd5b600e54821115620002d4576040517f08c379a0000000000000000000000000000000000000000000000000000000008152600401620002cb906200162c565b60405180910390fd5b620002e582620004fd60201b60201c565b1562000328576040517f08c379a00000000000000000000000000000000000000000000000000000000081526004016200031f906200169e565b60405180910390fd5b6000600d5490506000601260008581526020019081526020016000205411156200036357601260008481526020019081526020016000205490505b620003736200054660201b60201c565b73ffffffffffffffffffffffffffffffffffffffff163373ffffffffffffffffffffffffffffffffffffffff1614620004475760011515601160003373ffffffffffffffffffffffffffffffffffffffff1673ffffffffffffffffffffffffffffffffffffffff16815260200190815260200160002060009054906101000a900460ff1615151462000446578034101562000445576040517f08c379a00000000000000000000000000000000000000000000000000000000081526004016200043c9062001710565b60405180910390fd5b5b5b6200045984846200057060201b60201c565b50505050565b6200046f6200012360201b60201c565b73ffffffffffffffffffffffffffffffffffffffff16620004956200054660201b60201c565b73ffffffffffffffffffffffffffffffffffffffff1614620004ee576040517f08c379a0000000000000000000000000000000000000000000000000000000008152600401620004e59062001782565b60405180910390fd5b565b6000600880549050905090565b60008073ffffffffffffffffffffffffffffffffffffffff1662000527836200059660201b60201c565b73ffffffffffffffffffffffffffffffffffffffff1614159050919050565b6000600a60009054906101000a900473ffffffffffffffffffffffffffffffffffffffff16905090565b62000592828260405180602001604052806000815250620005d360201b60201c565b5050565b60006002600083815260200190815260200160002060009054906101000a900473ffffffffffffffffffffffffffffffffffffffff169050919050565b620005e583836200064160201b60201c565b620005fa60008484846200088760201b60201c565b6200063c576040517f08c379a000000000000000000000000000000000000000000000000000000000815260040162000633906200181a565b60405180910390fd5b505050565b600073ffffffffffffffffffffffffffffffffffffffff168273ffffffffffffffffffffffffffffffffffffffff1603620006b3576040517f08c379a0000000000000000000000000000000000000000000000000000000008152600401620006aa906200188c565b60405180910390fd5b620006c481620004fd60201b60201c565b1562000707576040517f08c379a0000000000000000000000000000000000000000000000000000000008152600401620006fe90620018fe565b60405180910390fd5b6200071d60008383600162000a3060201b60201c565b6200072e81620004fd60201b60201c565b1562000771576040517f08c379a00000000000000000000000000000000000000000000000000000000081526004016200076890620018fe565b60405180910390fd5b6001600360008473ffffffffffffffffffffffffffffffffffffffff1673ffffffffffffffffffffffffffffffffffffffff16815260200190815260200160002060008282540192505081905550816002600083815260200190815260200160002060006101000a81548173ffffffffffffffffffffffffffffffffffffffff021916908373ffffffffffffffffffffffffffffffffffffffff160217905550808273ffffffffffffffffffffffffffffffffffffffff16600073ffffffffffffffffffffffffffffffffffffffff167fddf252ad1be2c89b69c2b068fc378daa952ba7f163c4a11628f55a4df523b3ef60405160405180910390a46200088360008383600162000bc460201b60201c565b5050565b6000620008b58473ffffffffffffffffffffffffffffffffffffffff1662000bca60201b6200181d1760201c565b1562000a23578373ffffffffffffffffffffffffffffffffffffffff1663150b7a02620008e76200012360201b60201c565b8786866040518563ffffffff1660e01b81526004016200090b9493929190620019d3565b6020604051808303816000875af19250505080156200094a57506040513d601f19601f8201168201806040525081019062000947919062001a84565b60015b620009d2573d80600081146200097d576040519150601f19603f3d011682016040523d82523d6000602084013e62000982565b606091505b506000815103620009ca576040517f08c379a0000000000000000000000000000000000000000000000000000000008152600401620009c1906200181a565b60405180910390fd5b805181602001fd5b63150b7a0260e01b7bffffffffffffffffffffffffffffffffffffffffffffffffffffffff1916817bffffffffffffffffffffffffffffffffffffffffffffffffffffffff19161491505062000a28565b600190505b949350505050565b62000a498484848462000bed60201b620018401760201c565b600181111562000a90576040517f08c379a000000000000000000000000000000000000000000000000000000000815260040162000a879062001b2c565b60405180910390fd5b6000829050600073ffffffffffffffffffffffffffffffffffffffff168573ffffffffffffffffffffffffffffffffffffffff160362000ae15762000adb8162000bf360201b60201c565b62000b29565b8373ffffffffffffffffffffffffffffffffffffffff168573ffffffffffffffffffffffffffffffffffffffff161462000b285762000b27858262000c3c60201b60201c565b5b5b600073ffffffffffffffffffffffffffffffffffffffff168473ffffffffffffffffffffffffffffffffffffffff160362000b755762000b6f8162000db960201b60201c565b62000bbd565b8473ffffffffffffffffffffffffffffffffffffffff168473ffffffffffffffffffffffffffffffffffffffff161462000bbc5762000bbb848262000e9560201b60201c565b5b5b5050505050565b50505050565b6000808273ffffffffffffffffffffffffffffffffffffffff163b119050919050565b50505050565b6008805490506009600083815260200190815260200160002081905550600881908060018154018082558091505060019003906000526020600020016000909190919091505550565b6000600162000c568462000f2160201b620012a01760201c565b62000c62919062001b7d565b905060006007600084815260200190815260200160002054905081811462000d48576000600660008673ffffffffffffffffffffffffffffffffffffffff1673ffffffffffffffffffffffffffffffffffffffff168152602001908152602001600020600084815260200190815260200160002054905080600660008773ffffffffffffffffffffffffffffffffffffffff1673ffffffffffffffffffffffffffffffffffffffff168152602001908152602001600020600084815260200190815260200160002081905550816007600083815260200190815260200160002081905550505b6007600084815260200190815260200160002060009055600660008573ffffffffffffffffffffffffffffffffffffffff1673ffffffffffffffffffffffffffffffffffffffff16815260200190815260200160002060008381526020019081526020016000206000905550505050565b6000600160088054905062000dcf919062001b7d565b905060006009600084815260200190815260200160002054905060006008838154811062000e025762000e0162001bb8565b5b90600052602060002001549050806008838154811062000e275762000e2662001bb8565b5b90600052602060002001819055508160096000838152602001908152602001600020819055506009600085815260200190815260200160002060009055600880548062000e795762000e7862001be7565b5b6001900381819060005260206000200160009055905550505050565b600062000ead8362000f2160201b620012a01760201c565b905081600660008573ffffffffffffffffffffffffffffffffffffffff1673ffffffffffffffffffffffffffffffffffffffff168152602001908152602001600020600083815260200190815260200160002081905550806007600084815260200190815260200160002081905550505050565b60008073ffffffffffffffffffffffffffffffffffffffff168273ffffffffffffffffffffffffffffffffffffffff160362000f94576040517f08c379a000000000000000000000000000000000000000000000000000000000815260040162000f8b9062001c8c565b60405180910390fd5b600360008373ffffffffffffffffffffffffffffffffffffffff1673ffffffffffffffffffffffffffffffffffffffff168152602001908152602001600020549050919050565b600081519050919050565b7f4e487b7100000000000000000000000000000000000000000000000000000000600052604160045260246000fd5b7f4e487b7100000000000000000000000000000000000000000000000000000000600052602260045260246000fd5b600060028204905060018216806200105d57607f821691505b60208210810362001073576200107262001015565b5b50919050565b60008190508160005260206000209050919050565b60006020601f8301049050919050565b600082821b905092915050565b600060088302620010dd7fffffffffffffffffffffffffffffffffffffffffffffffffffffffffffffffff826200109e565b620010e986836200109e565b95508019841693508086168417925050509392505050565b6000819050919050565b6000819050919050565b600062001136620011306200112a8462001101565b6200110b565b62001101565b9050919050565b6000819050919050565b620011528362001115565b6200116a62001161826200113d565b848454620010ab565b825550505050565b600090565b6200118162001172565b6200118e81848462001147565b505050565b5b81811015620011b657620011aa60008262001177565b60018101905062001194565b5050565b601f8211156200120557620011cf8162001079565b620011da846200108e565b81016020851015620011ea578190505b62001202620011f9856200108e565b83018262001193565b50505b505050565b600082821c905092915050565b60006200122a600019846008026200120a565b1980831691505092915050565b600062001245838362001217565b9150826002028217905092915050565b620012608262000fdb565b67ffffffffffffffff8111156200127c576200127b62000fe6565b5b62001288825462001044565b62001295828285620011ba565b600060209050601f831160018114620012cd5760008415620012b8578287015190505b620012c4858262001237565b86555062001334565b601f198416620012dd8662001079565b60005b828110156200130757848901518255600182019150602085019450602081019050620012e0565b8683101562001327578489015162001323601f89168262001217565b8355505b6001600288020188555050505b505050505050565b6000604051905090565b600080fd5b600080fd5b600080fd5b600080fd5b6000601f19601f8301169050919050565b62001376826200135a565b810181811067ffffffffffffffff8211171562001398576200139762000fe6565b5b80604052505050565b6000620013ad6200133c565b9050620013bb82826200136b565b919050565b600067ffffffffffffffff821115620013de57620013dd62000fe6565b5b620013e9826200135a565b9050602081019050919050565b60005b8381101562001416578082015181840152602081019050620013f9565b60008484015250505050565b6000620014396200143384620013c0565b620013a1565b90508281526020810184848401111562001458576200145762001355565b5b62001465848285620013f6565b509392505050565b600082601f83011262001485576200148462001350565b5b81516200149784826020860162001422565b91505092915050565b600080600060608486031215620014bc57620014bb62001346565b5b600084015167ffffffffffffffff811115620014dd57620014dc6200134b565b5b620014eb868287016200146d565b935050602084015167ffffffffffffffff8111156200150f576200150e6200134b565b5b6200151d868287016200146d565b925050604084015167ffffffffffffffff8111156200154157620015406200134b565b5b6200154f868287016200146d565b9150509250925092565b600082825260208201905092915050565b7f4d6178696d756d20737570706c79207265616368656400000000000000000000600082015250565b6000620015a260168362001559565b9150620015af826200156a565b602082019050919050565b60006020820190508181036000830152620015d58162001593565b9050919050565b7f45646974696f6e2065786365656473206d617820737570706c79000000000000600082015250565b600062001614601a8362001559565b91506200162182620015dc565b602082019050919050565b60006020820190508181036000830152620016478162001605565b9050919050565b7f45646974696f6e20616c7265616479206d696e74656400000000000000000000600082015250565b60006200168660168362001559565b915062001693826200164e565b602082019050919050565b60006020820190508181036000830152620016b98162001677565b9050919050565b7f496e73756666696369656e742066756e64730000000000000000000000000000600082015250565b6000620016f860128362001559565b91506200170582620016c0565b602082019050919050565b600060208201905081810360008301526200172b81620016e9565b9050919050565b7f4f776e61626c653a2063616c6c6572206973206e6f7420746865206f776e6572600082015250565b60006200176a60208362001559565b9150620017778262001732565b602082019050919050565b600060208201905081810360008301526200179d816200175b565b9050919050565b7f4552433732313a207472616e7366657220746f206e6f6e20455243373231526560008201527f63656976657220696d706c656d656e7465720000000000000000000000000000602082015250565b60006200180260328362001559565b91506200180f82620017a4565b604082019050919050565b600060208201905081810360008301526200183581620017f3565b9050919050565b7f4552433732313a206d696e7420746f20746865207a65726f2061646472657373600082015250565b60006200187460208362001559565b915062001881826200183c565b602082019050919050565b60006020820190508181036000830152620018a78162001865565b9050919050565b7f4552433732313a20746f6b656e20616c7265616479206d696e74656400000000600082015250565b6000620018e6601c8362001559565b9150620018f382620018ae565b602082019050919050565b600060208201905081810360008301526200191981620018d7565b9050919050565b600073ffffffffffffffffffffffffffffffffffffffff82169050919050565b60006200194d8262001920565b9050919050565b6200195f8162001940565b82525050565b620019708162001101565b82525050565b600081519050919050565b600082825260208201905092915050565b60006200199f8262001976565b620019ab818562001981565b9350620019bd818560208601620013f6565b620019c8816200135a565b840191505092915050565b6000608082019050620019ea600083018762001954565b620019f9602083018662001954565b62001a08604083018562001965565b818103606083015262001a1c818462001992565b905095945050505050565b60007fffffffff0000000000000000000000000000000000000000000000000000000082169050919050565b62001a5e8162001a27565b811462001a6a57600080fd5b50565b60008151905062001a7e8162001a53565b92915050565b60006020828403121562001a9d5762001a9c62001346565b5b600062001aad8482850162001a6d565b91505092915050565b7f455243373231456e756d657261626c653a20636f6e736563757469766520747260008201527f616e7366657273206e6f7420737570706f727465640000000000000000000000602082015250565b600062001b1460358362001559565b915062001b218262001ab6565b604082019050919050565b6000602082019050818103600083015262001b478162001b05565b9050919050565b7f4e487b7100000000000000000000000000000000000000000000000000000000600052601160045260246000fd5b600062001b8a8262001101565b915062001b978362001101565b925082820390508181111562001bb25762001bb162001b4e565b5b92915050565b7f4e487b7100000000000000000000000000000000000000000000000000000000600052603260045260246000fd5b7f4e487b7100000000000000000000000000000000000000000000000000000000600052603160045260246000fd5b7f4552433732313a2061646472657373207a65726f206973206e6f74206120766160008201527f6c6964206f776e65720000000000000000000000000000000000000000000000602082015250565b600062001c7460298362001559565b915062001c818262001c16565b604082019050919050565b6000602082019050818103600083015262001ca78162001c65565b9050919050565b6146108062001cbe6000396000f3fe6080604052600436106102305760003560e01c80635c975abb1161012e578063b88d4fde116100ab578063d936547e1161006f578063d936547e14610831578063d9f10a2b1461086e578063da3ef23f146108ab578063e985e9c5146108d4578063f2fde38b1461091157610230565b8063b88d4fde1461074c578063c668286214610775578063c87b56dd146107a0578063cb58857b146107dd578063d5abeb011461080657610230565b80637f00c7a6116100f25780637f00c7a6146106675780638da5cb5b1461069057806395d89b41146106bb578063a22cb465146106e6578063ab406bee1461070f57610230565b80635c975abb146105805780636352211e146105ab5780636c0360eb146105e857806370a0823114610613578063715018a61461065057610230565b80632f745c59116101bc578063438b630011610180578063438b63001461048b57806344a0d68a146104c85780634a4c560d146104f15780634f6ccce71461051a57806355f804b31461055757610230565b80632f745c59146103d657806330cc7ae0146104135780633ccfd60b1461043c57806340c10f191461044657806342842e0e1461046257610230565b8063095ea7b311610203578063095ea7b31461030357806313faede61461032c57806318160ddd14610357578063239c70ae1461038257806323b872dd146103ad57610230565b806301ffc9a71461023557806302329a291461027257806306fdde031461029b578063081812fc146102c6575b600080fd5b34801561024157600080fd5b5061025c60048036038101906102579190612d5c565b61093a565b6040516102699190612da4565b60405180910390f35b34801561027e57600080fd5b5061029960048036038101906102949190612deb565b6109b4565b005b3480156102a757600080fd5b506102b06109d9565b6040516102bd9190612ea8565b60405180910390f35b3480156102d257600080fd5b506102ed60048036038101906102e89190612f00565b610a6b565b6040516102fa9190612f6e565b60405180910390f35b34801561030f57600080fd5b5061032a60048036038101906103259190612fb5565b610ab1565b005b34801561033857600080fd5b50610341610bc8565b60405161034e9190613004565b60405180910390f35b34801561036357600080fd5b5061036c610bce565b6040516103799190613004565b60405180910390f35b34801561038e57600080fd5b50610397610bdb565b6040516103a49190613004565b60405180910390f35b3480156103b957600080fd5b506103d460048036038101906103cf919061301f565b610be1565b005b3480156103e257600080fd5b506103fd60048036038101906103f89190612fb5565b610c41565b60405161040a9190613004565b60405180910390f35b34801561041f57600080fd5b5061043a60048036038101906104359190613072565b610ce6565b005b610444610d49565b005b610460600480360381019061045b9190612fb5565b610d91565b005b34801561046e57600080fd5b506104896004803603810190610484919061301f565b610faa565b005b34801561049757600080fd5b506104b260048036038101906104ad9190613072565b610fca565b6040516104bf919061315d565b60405180910390f35b3480156104d457600080fd5b506104ef60048036038101906104ea9190612f00565b611078565b005b3480156104fd57600080fd5b5061051860048036038101906105139190613072565b61108a565b005b34801561052657600080fd5b50610541600480360381019061053c9190612f00565b6110ed565b60405161054e9190613004565b60405180910390f35b34801561056357600080fd5b5061057e600480360381019061057991906132b4565b61115e565b005b34801561058c57600080fd5b50610595611179565b6040516105a29190612da4565b60405180910390f35b3480156105b757600080fd5b506105d260048036038101906105cd9190612f00565b61118c565b6040516105df9190612f6e565b60405180910390f35b3480156105f457600080fd5b506105fd611212565b60405161060a9190612ea8565b60405180910390f35b34801561061f57600080fd5b5061063a60048036038101906106359190613072565b6112a0565b6040516106479190613004565b60405180910390f35b34801561065c57600080fd5b50610665611357565b005b34801561067357600080fd5b5061068e60048036038101906106899190612f00565b61136b565b005b34801561069c57600080fd5b506106a561137d565b6040516106b29190612f6e565b60405180910390f35b3480156106c757600080fd5b506106d06113a7565b6040516106dd9190612ea8565b60405180910390f35b3480156106f257600080fd5b5061070d600480360381019061070891906132fd565b611439565b005b34801561071b57600080fd5b5061073660048036038101906107319190612f00565b61144f565b6040516107439190613004565b60405180910390f35b34801561075857600080fd5b50610773600480360381019061076e91906133de565b611467565b005b34801561078157600080fd5b5061078a6114c9565b6040516107979190612ea8565b60405180910390f35b3480156107ac57600080fd5b506107c760048036038101906107c29190612f00565b611557565b6040516107d49190612ea8565b60405180910390f35b3480156107e957600080fd5b5061080460048036038101906107ff9190613461565b611601565b005b34801561081257600080fd5b5061081b6116ad565b6040516108289190613004565b60405180910390f35b34801561083d57600080fd5b5061085860048036038101906108539190613072565b6116b3565b6040516108659190612da4565b60405180910390f35b34801561087a57600080fd5b5061089560048036038101906108909190612f00565b6116d3565b6040516108a29190613004565b60405180910390f35b3480156108b757600080fd5b506108d260048036038101906108cd91906132b4565b6116eb565b005b3480156108e057600080fd5b506108fb60048036038101906108f691906134a1565b611706565b6040516109089190612da4565b60405180910390f35b34801561091d57600080fd5b5061093860048036038101906109339190613072565b61179a565b005b60007f780e9d63000000000000000000000000000000000000000000000000000000007bffffffffffffffffffffffffffffffffffffffffffffffffffffffff1916827bffffffffffffffffffffffffffffffffffffffffffffffffffffffff191614806109ad57506109ac82611846565b5b9050919050565b6109bc611928565b80601060006101000a81548160ff02191690831515021790555050565b6060600080546109e890613510565b80601f0160208091040260200160405190810160405280929190818152602001828054610a1490613510565b8015610a615780601f10610a3657610100808354040283529160200191610a61565b820191906000526020600020905b815481529060010190602001808311610a4457829003601f168201915b5050505050905090565b6000610a76826119a6565b6004600083815260200190815260200160002060009054906101000a900473ffffffffffffffffffffffffffffffffffffffff169050919050565b6000610abc8261118c565b90508073ffffffffffffffffffffffffffffffffffffffff168373ffffffffffffffffffffffffffffffffffffffff1603610b2c576040517f08c379a0000000000000000000000000000000000000000000000000000000008152600401610b23906135b3565b60405180910390fd5b8073ffffffffffffffffffffffffffffffffffffffff16610b4b6119f1565b73ffffffffffffffffffffffffffffffffffffffff161480610b7a5750610b7981610b746119f1565b611706565b5b610bb9576040517f08c379a0000000000000000000000000000000000000000000000000000000008152600401610bb090613645565b60405180910390fd5b610bc383836119f9565b505050565b600d5481565b6000600880549050905090565b600f5481565b610bf2610bec6119f1565b82611ab2565b610c31576040517f08c379a0000000000000000000000000000000000000000000000000000000008152600401610c28906136d7565b60405180910390fd5b610c3c838383611b47565b505050565b6000610c4c836112a0565b8210610c8d576040517f08c379a0000000000000000000000000000000000000000000000000000000008152600401610c8490613769565b60405180910390fd5b600660008473ffffffffffffffffffffffffffffffffffffffff1673ffffffffffffffffffffffffffffffffffffffff168152602001908152602001600020600083815260200190815260200160002054905092915050565b610cee611928565b6000601160008373ffffffffffffffffffffffffffffffffffffffff1673ffffffffffffffffffffffffffffffffffffffff16815260200190815260200160002060006101000a81548160ff02191690831515021790555050565b610d51611928565b3373ffffffffffffffffffffffffffffffffffffffff166108fc479081150290604051600060405180830381858888f19350505050610d8f57600080fd5b565b6000610d9b610bce565b9050601060009054906101000a900460ff1615610db757600080fd5b600e548110610dfb576040517f08c379a0000000000000000000000000000000000000000000000000000000008152600401610df2906137d5565b60405180910390fd5b600e54821115610e40576040517f08c379a0000000000000000000000000000000000000000000000000000000008152600401610e3790613841565b60405180910390fd5b610e4982611e40565b15610e89576040517f08c379a0000000000000000000000000000000000000000000000000000000008152600401610e80906138ad565b60405180910390fd5b6000600d549050600060126000858152602001908152602001600020541115610ec357601260008481526020019081526020016000205490505b610ecb61137d565b73ffffffffffffffffffffffffffffffffffffffff163373ffffffffffffffffffffffffffffffffffffffff1614610f9a5760011515601160003373ffffffffffffffffffffffffffffffffffffffff1673ffffffffffffffffffffffffffffffffffffffff16815260200190815260200160002060009054906101000a900460ff16151514610f995780341015610f98576040517f08c379a0000000000000000000000000000000000000000000000000000000008152600401610f8f90613919565b60405180910390fd5b5b5b610fa48484611e81565b50505050565b610fc583838360405180602001604052806000815250611467565b505050565b60606000610fd7836112a0565b905060008167ffffffffffffffff811115610ff557610ff4613189565b5b6040519080825280602002602001820160405280156110235781602001602082028036833780820191505090505b50905060005b8281101561106d5761103b8582610c41565b82828151811061104e5761104d613939565b5b602002602001018181525050808061106590613997565b915050611029565b508092505050919050565b611080611928565b80600d8190555050565b611092611928565b6001601160008373ffffffffffffffffffffffffffffffffffffffff1673ffffffffffffffffffffffffffffffffffffffff16815260200190815260200160002060006101000a81548160ff02191690831515021790555050565b60006110f7610bce565b8210611138576040517f08c379a000000000000000000000000000000000000000000000000000000000815260040161112f90613a51565b60405180910390fd5b6008828154811061114c5761114b613939565b5b90600052602060002001549050919050565b611166611928565b80600b90816111759190613c1d565b5050565b601060009054906101000a900460ff1681565b60008061119883611e9f565b9050600073ffffffffffffffffffffffffffffffffffffffff168173ffffffffffffffffffffffffffffffffffffffff1603611209576040517f08c379a000000000000000000000000000000000000000000000000000000000815260040161120090613d3b565b60405180910390fd5b80915050919050565b600b805461121f90613510565b80601f016020809104026020016040519081016040528092919081815260200182805461124b90613510565b80156112985780601f1061126d57610100808354040283529160200191611298565b820191906000526020600020905b81548152906001019060200180831161127b57829003601f168201915b505050505081565b60008073ffffffffffffffffffffffffffffffffffffffff168273ffffffffffffffffffffffffffffffffffffffff1603611310576040517f08c379a000000000000000000000000000000000000000000000000000000000815260040161130790613dcd565b60405180910390fd5b600360008373ffffffffffffffffffffffffffffffffffffffff1673ffffffffffffffffffffffffffffffffffffffff168152602001908152602001600020549050919050565b61135f611928565b6113696000611edc565b565b611373611928565b80600f8190555050565b6000600a60009054906101000a900473ffffffffffffffffffffffffffffffffffffffff16905090565b6060600180546113b690613510565b80601f01602080910402602001604051908101604052809291908181526020018280546113e290613510565b801561142f5780601f106114045761010080835404028352916020019161142f565b820191906000526020600020905b81548152906001019060200180831161141257829003601f168201915b5050505050905090565b61144b6114446119f1565b8383611fa2565b5050565b60136020528060005260406000206000915090505481565b6114786114726119f1565b83611ab2565b6114b7576040517f08c379a00000000000000000000000000000000000000000000000000000000081526004016114ae906136d7565b60405180910390fd5b6114c38484848461210e565b50505050565b600c80546114d690613510565b80601f016020809104026020016040519081016040528092919081815260200182805461150290613510565b801561154f5780601f106115245761010080835404028352916020019161154f565b820191906000526020600020905b81548152906001019060200180831161153257829003601f168201915b505050505081565b606061156282611e40565b6115a1576040517f08c379a000000000000000000000000000000000000000000000000000000000815260040161159890613e5f565b60405180910390fd5b60006115ab61216a565b905060008151116115cb57604051806020016040528060008152506115f9565b806115d5846121fc565b600c6040516020016115e993929190613f3e565b6040516020818303038152906040525b915050919050565b611609611928565b6000821161164c576040517f08c379a000000000000000000000000000000000000000000000000000000000815260040161164390613fbb565b60405180910390fd5b600e54821115611691576040517f08c379a000000000000000000000000000000000000000000000000000000000815260040161168890613841565b60405180910390fd5b8060126000848152602001908152602001600020819055505050565b600e5481565b60116020528060005260406000206000915054906101000a900460ff1681565b60126020528060005260406000206000915090505481565b6116f3611928565b80600c90816117029190613c1d565b5050565b6000600560008473ffffffffffffffffffffffffffffffffffffffff1673ffffffffffffffffffffffffffffffffffffffff16815260200190815260200160002060008373ffffffffffffffffffffffffffffffffffffffff1673ffffffffffffffffffffffffffffffffffffffff16815260200190815260200160002060009054906101000a900460ff16905092915050565b6117a2611928565b600073ffffffffffffffffffffffffffffffffffffffff168173ffffffffffffffffffffffffffffffffffffffff1603611811576040517f08c379a00000000000000000000000000000000000000000000000000000000081526004016118089061404d565b60405180910390fd5b61181a81611edc565b50565b6000808273ffffffffffffffffffffffffffffffffffffffff163b119050919050565b50505050565b60007f80ac58cd000000000000000000000000000000000000000000000000000000007bffffffffffffffffffffffffffffffffffffffffffffffffffffffff1916827bffffffffffffffffffffffffffffffffffffffffffffffffffffffff1916148061191157507f5b5e139f000000000000000000000000000000000000000000000000000000007bffffffffffffffffffffffffffffffffffffffffffffffffffffffff1916827bffffffffffffffffffffffffffffffffffffffffffffffffffffffff1916145b806119215750611920826122ca565b5b9050919050565b6119306119f1565b73ffffffffffffffffffffffffffffffffffffffff1661194e61137d565b73ffffffffffffffffffffffffffffffffffffffff16146119a4576040517f08c379a000000000000000000000000000000000000000000000000000000000815260040161199b906140b9565b60405180910390fd5b565b6119af81611e40565b6119ee576040517f08c379a00000000000000000000000000000000000000000000000000000000081526004016119e590613d3b565b60405180910390fd5b50565b600033905090565b816004600083815260200190815260200160002060006101000a81548173ffffffffffffffffffffffffffffffffffffffff021916908373ffffffffffffffffffffffffffffffffffffffff160217905550808273ffffffffffffffffffffffffffffffffffffffff16611a6c8361118c565b73ffffffffffffffffffffffffffffffffffffffff167f8c5be1e5ebec7d5bd14f71427d1e84f3dd0314c0f7b2291e5b200ac8c7c3b92560405160405180910390a45050565b600080611abe8361118c565b90508073ffffffffffffffffffffffffffffffffffffffff168473ffffffffffffffffffffffffffffffffffffffff161480611b005750611aff8185611706565b5b80611b3e57508373ffffffffffffffffffffffffffffffffffffffff16611b2684610a6b565b73ffffffffffffffffffffffffffffffffffffffff16145b91505092915050565b8273ffffffffffffffffffffffffffffffffffffffff16611b678261118c565b73ffffffffffffffffffffffffffffffffffffffff1614611bbd576040517f08c379a0000000000000000000000000000000000000000000000000000000008152600401611bb49061414b565b60405180910390fd5b600073ffffffffffffffffffffffffffffffffffffffff168273ffffffffffffffffffffffffffffffffffffffff1603611c2c576040517f08c379a0000000000000000000000000000000000000000000000000000000008152600401611c23906141dd565b60405180910390fd5b611c398383836001612334565b8273ffffffffffffffffffffffffffffffffffffffff16611c598261118c565b73ffffffffffffffffffffffffffffffffffffffff1614611caf576040517f08c379a0000000000000000000000000000000000000000000000000000000008152600401611ca69061414b565b60405180910390fd5b6004600082815260200190815260200160002060006101000a81549073ffffffffffffffffffffffffffffffffffffffff02191690556001600360008573ffffffffffffffffffffffffffffffffffffffff1673ffffffffffffffffffffffffffffffffffffffff168152602001908152602001600020600082825403925050819055506001600360008473ffffffffffffffffffffffffffffffffffffffff1673ffffffffffffffffffffffffffffffffffffffff16815260200190815260200160002060008282540192505081905550816002600083815260200190815260200160002060006101000a81548173ffffffffffffffffffffffffffffffffffffffff021916908373ffffffffffffffffffffffffffffffffffffffff160217905550808273ffffffffffffffffffffffffffffffffffffffff168473ffffffffffffffffffffffffffffffffffffffff167fddf252ad1be2c89b69c2b068fc378daa952ba7f163c4a11628f55a4df523b3ef60405160405180910390a4611e3b8383836001612492565b505050565b60008073ffffffffffffffffffffffffffffffffffffffff16611e6283611e9f565b73ffffffffffffffffffffffffffffffffffffffff1614159050919050565b611e9b828260405180602001604052806000815250612498565b5050565b60006002600083815260200190815260200160002060009054906101000a900473ffffffffffffffffffffffffffffffffffffffff169050919050565b6000600a60009054906101000a900473ffffffffffffffffffffffffffffffffffffffff16905081600a60006101000a81548173ffffffffffffffffffffffffffffffffffffffff021916908373ffffffffffffffffffffffffffffffffffffffff1602179055508173ffffffffffffffffffffffffffffffffffffffff168173ffffffffffffffffffffffffffffffffffffffff167f8be0079c531659141344cd1fd0a4f28419497f9722a3daafe3b4186f6b6457e060405160405180910390a35050565b8173ffffffffffffffffffffffffffffffffffffffff168373ffffffffffffffffffffffffffffffffffffffff1603612010576040517f08c379a000000000000000000000000000000000000000000000000000000000815260040161200790614249565b60405180910390fd5b80600560008573ffffffffffffffffffffffffffffffffffffffff1673ffffffffffffffffffffffffffffffffffffffff16815260200190815260200160002060008473ffffffffffffffffffffffffffffffffffffffff1673ffffffffffffffffffffffffffffffffffffffff16815260200190815260200160002060006101000a81548160ff0219169083151502179055508173ffffffffffffffffffffffffffffffffffffffff168373ffffffffffffffffffffffffffffffffffffffff167f17307eab39ab6107e8899845ad3d59bd9653f200f220920489ca2b5937696c31836040516121019190612da4565b60405180910390a3505050565b612119848484611b47565b612125848484846124f3565b612164576040517f08c379a000000000000000000000000000000000000000000000000000000000815260040161215b906142db565b60405180910390fd5b50505050565b6060600b805461217990613510565b80601f01602080910402602001604051908101604052809291908181526020018280546121a590613510565b80156121f25780601f106121c7576101008083540402835291602001916121f2565b820191906000526020600020905b8154815290600101906020018083116121d557829003601f168201915b5050505050905090565b60606000600161220b8461267a565b01905060008167ffffffffffffffff81111561222a57612229613189565b5b6040519080825280601f01601f19166020018201604052801561225c5781602001600182028036833780820191505090505b509050600082602001820190505b6001156122bf578080600190039150507f3031323334353637383961626364656600000000000000000000000000000000600a86061a8153600a85816122b3576122b26142fb565b5b0494506000850361226a575b819350505050919050565b60007f01ffc9a7000000000000000000000000000000000000000000000000000000007bffffffffffffffffffffffffffffffffffffffffffffffffffffffff1916827bffffffffffffffffffffffffffffffffffffffffffffffffffffffff1916149050919050565b61234084848484611840565b6001811115612384576040517f08c379a000000000000000000000000000000000000000000000000000000000815260040161237b9061439c565b60405180910390fd5b6000829050600073ffffffffffffffffffffffffffffffffffffffff168573ffffffffffffffffffffffffffffffffffffffff16036123cb576123c6816127cd565b61240a565b8373ffffffffffffffffffffffffffffffffffffffff168573ffffffffffffffffffffffffffffffffffffffff1614612409576124088582612816565b5b5b600073ffffffffffffffffffffffffffffffffffffffff168473ffffffffffffffffffffffffffffffffffffffff160361244c5761244781612983565b61248b565b8473ffffffffffffffffffffffffffffffffffffffff168473ffffffffffffffffffffffffffffffffffffffff161461248a576124898482612a54565b5b5b5050505050565b50505050565b6124a28383612ad3565b6124af60008484846124f3565b6124ee576040517f08c379a00000000000000000000000000000000000000000000000000000000081526004016124e5906142db565b60405180910390fd5b505050565b60006125148473ffffffffffffffffffffffffffffffffffffffff1661181d565b1561266d578373ffffffffffffffffffffffffffffffffffffffff1663150b7a0261253d6119f1565b8786866040518563ffffffff1660e01b815260040161255f9493929190614411565b6020604051808303816000875af192505050801561259b57506040513d601f19601f820116820180604052508101906125989190614472565b60015b61261d573d80600081146125cb576040519150601f19603f3d011682016040523d82523d6000602084013e6125d0565b606091505b506000815103612615576040517f08c379a000000000000000000000000000000000000000000000000000000000815260040161260c906142db565b60405180910390fd5b805181602001fd5b63150b7a0260e01b7bffffffffffffffffffffffffffffffffffffffffffffffffffffffff1916817bffffffffffffffffffffffffffffffffffffffffffffffffffffffff191614915050612672565b600190505b949350505050565b600080600090507a184f03e93ff9f4daa797ed6e38ed64bf6a1f01000000000000000083106126d8577a184f03e93ff9f4daa797ed6e38ed64bf6a1f01000000000000000083816126ce576126cd6142fb565b5b0492506040810190505b6d04ee2d6d415b85acef81000000008310612715576d04ee2d6d415b85acef8100000000838161270b5761270a6142fb565b5b0492506020810190505b662386f26fc10000831061274457662386f26fc10000838161273a576127396142fb565b5b0492506010810190505b6305f5e100831061276d576305f5e1008381612763576127626142fb565b5b0492506008810190505b6127108310612792576127108381612788576127876142fb565b5b0492506004810190505b606483106127b557606483816127ab576127aa6142fb565b5b0492506002810190505b600a83106127c4576001810190505b80915050919050565b6008805490506009600083815260200190815260200160002081905550600881908060018154018082558091505060019003906000526020600020016000909190919091505550565b60006001612823846112a0565b61282d919061449f565b9050600060076000848152602001908152602001600020549050818114612912576000600660008673ffffffffffffffffffffffffffffffffffffffff1673ffffffffffffffffffffffffffffffffffffffff168152602001908152602001600020600084815260200190815260200160002054905080600660008773ffffffffffffffffffffffffffffffffffffffff1673ffffffffffffffffffffffffffffffffffffffff168152602001908152602001600020600084815260200190815260200160002081905550816007600083815260200190815260200160002081905550505b6007600084815260200190815260200160002060009055600660008573ffffffffffffffffffffffffffffffffffffffff1673ffffffffffffffffffffffffffffffffffffffff16815260200190815260200160002060008381526020019081526020016000206000905550505050565b60006001600880549050612997919061449f565b90506000600960008481526020019081526020016000205490506000600883815481106129c7576129c6613939565b5b9060005260206000200154905080600883815481106129e9576129e8613939565b5b906000526020600020018190555081600960008381526020019081526020016000208190555060096000858152602001908152602001600020600090556008805480612a3857612a376144d3565b5b6001900381819060005260206000200160009055905550505050565b6000612a5f836112a0565b905081600660008573ffffffffffffffffffffffffffffffffffffffff1673ffffffffffffffffffffffffffffffffffffffff168152602001908152602001600020600083815260200190815260200160002081905550806007600084815260200190815260200160002081905550505050565b600073ffffffffffffffffffffffffffffffffffffffff168273ffffffffffffffffffffffffffffffffffffffff1603612b42576040517f08c379a0000000000000000000000000000000000000000000000000000000008152600401612b399061454e565b60405180910390fd5b612b4b81611e40565b15612b8b576040517f08c379a0000000000000000000000000000000000000000000000000000000008152600401612b82906145ba565b60405180910390fd5b612b99600083836001612334565b612ba281611e40565b15612be2576040517f08c379a0000000000000000000000000000000000000000000000000000000008152600401612bd9906145ba565b60405180910390fd5b6001600360008473ffffffffffffffffffffffffffffffffffffffff1673ffffffffffffffffffffffffffffffffffffffff16815260200190815260200160002060008282540192505081905550816002600083815260200190815260200160002060006101000a81548173ffffffffffffffffffffffffffffffffffffffff021916908373ffffffffffffffffffffffffffffffffffffffff160217905550808273ffffffffffffffffffffffffffffffffffffffff16600073ffffffffffffffffffffffffffffffffffffffff167fddf252ad1be2c89b69c2b068fc378daa952ba7f163c4a11628f55a4df523b3ef60405160405180910390a4612cec600083836001612492565b5050565b6000604051905090565b600080fd5b600080fd5b60007fffffffff0000000000000000000000000000000000000000000000000000000082169050919050565b612d3981612d04565b8114612d4457600080fd5b50565b600081359050612d5681612d30565b92915050565b600060208284031215612d7257612d71612cfa565b5b6000612d8084828501612d47565b91505092915050565b60008115159050919050565b612d9e81612d89565b82525050565b6000602082019050612db96000830184612d95565b92915050565b612dc881612d89565b8114612dd357600080fd5b50565b600081359050612de581612dbf565b92915050565b600060208284031215612e0157612e00612cfa565b5b6000612e0f84828501612dd6565b91505092915050565b600081519050919050565b600082825260208201905092915050565b60005b83811015612e52578082015181840152602081019050612e37565b60008484015250505050565b6000601f19601f8301169050919050565b6000612e7a82612e18565b612e848185612e23565b9350612e94818560208601612e34565b612e9d81612e5e565b840191505092915050565b60006020820190508181036000830152612ec28184612e6f565b905092915050565b6000819050919050565b612edd81612eca565b8114612ee857600080fd5b50565b600081359050612efa81612ed4565b92915050565b600060208284031215612f1657612f15612cfa565b5b6000612f2484828501612eeb565b91505092915050565b600073ffffffffffffffffffffffffffffffffffffffff82169050919050565b6000612f5882612f2d565b9050919050565b612f6881612f4d565b82525050565b6000602082019050612f836000830184612f5f565b92915050565b612f9281612f4d565b8114612f9d57600080fd5b50565b600081359050612faf81612f89565b92915050565b60008060408385031215612fcc57612fcb612cfa565b5b6000612fda85828601612fa0565b9250506020612feb85828601612eeb565b9150509250929050565b612ffe81612eca565b82525050565b60006020820190506130196000830184612ff5565b92915050565b60008060006060848603121561303857613037612cfa565b5b600061304686828701612fa0565b935050602061305786828701612fa0565b925050604061306886828701612eeb565b9150509250925092565b60006020828403121561308857613087612cfa565b5b600061309684828501612fa0565b91505092915050565b600081519050919050565b600082825260208201905092915050565b6000819050602082019050919050565b6130d481612eca565b82525050565b60006130e683836130cb565b60208301905092915050565b6000602082019050919050565b600061310a8261309f565b61311481856130aa565b935061311f836130bb565b8060005b8381101561315057815161313788826130da565b9750613142836130f2565b925050600181019050613123565b5085935050505092915050565b6000602082019050818103600083015261317781846130ff565b905092915050565b600080fd5b600080fd5b7f4e487b7100000000000000000000000000000000000000000000000000000000600052604160045260246000fd5b6131c182612e5e565b810181811067ffffffffffffffff821117156131e0576131df613189565b5b80604052505050565b60006131f3612cf0565b90506131ff82826131b8565b919050565b600067ffffffffffffffff82111561321f5761321e613189565b5b61322882612e5e565b9050602081019050919050565b82818337600083830152505050565b600061325761325284613204565b6131e9565b90508281526020810184848401111561327357613272613184565b5b61327e848285613235565b509392505050565b600082601f83011261329b5761329a61317f565b5b81356132ab848260208601613244565b91505092915050565b6000602082840312156132ca576132c9612cfa565b5b600082013567ffffffffffffffff8111156132e8576132e7612cff565b5b6132f484828501613286565b91505092915050565b6000806040838503121561331457613313612cfa565b5b600061332285828601612fa0565b925050602061333385828601612dd6565b9150509250929050565b600067ffffffffffffffff82111561335857613357613189565b5b61336182612e5e565b9050602081019050919050565b600061338161337c8461333d565b6131e9565b90508281526020810184848401111561339d5761339c613184565b5b6133a8848285613235565b509392505050565b600082601f8301126133c5576133c461317f565b5b81356133d584826020860161336e565b91505092915050565b600080600080608085870312156133f8576133f7612cfa565b5b600061340687828801612fa0565b945050602061341787828801612fa0565b935050604061342887828801612eeb565b925050606085013567ffffffffffffffff81111561344957613448612cff565b5b613455878288016133b0565b91505092959194509250565b6000806040838503121561347857613477612cfa565b5b600061348685828601612eeb565b925050602061349785828601612eeb565b9150509250929050565b600080604083850312156134b8576134b7612cfa565b5b60006134c685828601612fa0565b92505060206134d785828601612fa0565b9150509250929050565b7f4e487b7100000000000000000000000000000000000000000000000000000000600052602260045260246000fd5b6000600282049050600182168061352857607f821691505b60208210810361353b5761353a6134e1565b5b50919050565b7f4552433732313a20617070726f76616c20746f2063757272656e74206f776e6560008201527f7200000000000000000000000000000000000000000000000000000000000000602082015250565b600061359d602183612e23565b91506135a882613541565b604082019050919050565b600060208201905081810360008301526135cc81613590565b9050919050565b7f4552433732313a20617070726f76652063616c6c6572206973206e6f7420746f60008201527f6b656e206f776e6572206f7220617070726f76656420666f7220616c6c000000602082015250565b600061362f603d83612e23565b915061363a826135d3565b604082019050919050565b6000602082019050818103600083015261365e81613622565b9050919050565b7f4552433732313a2063616c6c6572206973206e6f7420746f6b656e206f776e6560008201527f72206f7220617070726f76656400000000000000000000000000000000000000602082015250565b60006136c1602d83612e23565b91506136cc82613665565b604082019050919050565b600060208201905081810360008301526136f0816136b4565b9050919050565b7f455243373231456e756d657261626c653a206f776e657220696e646578206f7560008201527f74206f6620626f756e6473000000000000000000000000000000000000000000602082015250565b6000613753602b83612e23565b915061375e826136f7565b604082019050919050565b6000602082019050818103600083015261378281613746565b9050919050565b7f4d6178696d756d20737570706c79207265616368656400000000000000000000600082015250565b60006137bf601683612e23565b91506137ca82613789565b602082019050919050565b600060208201905081810360008301526137ee816137b2565b9050919050565b7f45646974696f6e2065786365656473206d617820737570706c79000000000000600082015250565b600061382b601a83612e23565b9150613836826137f5565b602082019050919050565b6000602082019050818103600083015261385a8161381e565b9050919050565b7f45646974696f6e20616c7265616479206d696e74656400000000000000000000600082015250565b6000613897601683612e23565b91506138a282613861565b602082019050919050565b600060208201905081810360008301526138c68161388a565b9050919050565b7f496e73756666696369656e742066756e64730000000000000000000000000000600082015250565b6000613903601283612e23565b915061390e826138cd565b602082019050919050565b60006020820190508181036000830152613932816138f6565b9050919050565b7f4e487b7100000000000000000000000000000000000000000000000000000000600052603260045260246000fd5b7f4e487b7100000000000000000000000000000000000000000000000000000000600052601160045260246000fd5b60006139a282612eca565b91507fffffffffffffffffffffffffffffffffffffffffffffffffffffffffffffffff82036139d4576139d3613968565b5b600182019050919050565b7f455243373231456e756d657261626c653a20676c6f62616c20696e646578206f60008201527f7574206f6620626f756e64730000000000000000000000000000000000000000602082015250565b6000613a3b602c83612e23565b9150613a46826139df565b604082019050919050565b60006020820190508181036000830152613a6a81613a2e565b9050919050565b60008190508160005260206000209050919050565b60006020601f8301049050919050565b600082821b905092915050565b600060088302613ad37fffffffffffffffffffffffffffffffffffffffffffffffffffffffffffffffff82613a96565b613add8683613a96565b95508019841693508086168417925050509392505050565b6000819050919050565b6000613b1a613b15613b1084612eca565b613af5565b612eca565b9050919050565b6000819050919050565b613b3483613aff565b613b48613b4082613b21565b848454613aa3565b825550505050565b600090565b613b5d613b50565b613b68818484613b2b565b505050565b5b81811015613b8c57613b81600082613b55565b600181019050613b6e565b5050565b601f821115613bd157613ba281613a71565b613bab84613a86565b81016020851015613bba578190505b613bce613bc685613a86565b830182613b6d565b50505b505050565b600082821c905092915050565b6000613bf460001984600802613bd6565b1980831691505092915050565b6000613c0d8383613be3565b9150826002028217905092915050565b613c2682612e18565b67ffffffffffffffff811115613c3f57613c3e613189565b5b613c498254613510565b613c54828285613b90565b600060209050601f831160018114613c875760008415613c75578287015190505b613c7f8582613c01565b865550613ce7565b601f198416613c9586613a71565b60005b82811015613cbd57848901518255600182019150602085019450602081019050613c98565b86831015613cda5784890151613cd6601f891682613be3565b8355505b6001600288020188555050505b505050505050565b7f4552433732313a20696e76616c696420746f6b656e2049440000000000000000600082015250565b6000613d25601883612e23565b9150613d3082613cef565b602082019050919050565b60006020820190508181036000830152613d5481613d18565b9050919050565b7f4552433732313a2061646472657373207a65726f206973206e6f74206120766160008201527f6c6964206f776e65720000000000000000000000000000000000000000000000602082015250565b6000613db7602983612e23565b9150613dc282613d5b565b604082019050919050565b60006020820190508181036000830152613de681613daa565b9050919050565b7f4552433732314d657461646174613a2055524920717565727920666f72206e6f60008201527f6e6578697374656e7420746f6b656e0000000000000000000000000000000000602082015250565b6000613e49602f83612e23565b9150613e5482613ded565b604082019050919050565b60006020820190508181036000830152613e7881613e3c565b9050919050565b600081905092915050565b6000613e9582612e18565b613e9f8185613e7f565b9350613eaf818560208601612e34565b80840191505092915050565b60008154613ec881613510565b613ed28186613e7f565b94506001821660008114613eed5760018114613f0257613f35565b60ff1983168652811515820286019350613f35565b613f0b85613a71565b60005b83811015613f2d57815481890152600182019150602081019050613f0e565b838801955050505b50505092915050565b6000613f4a8286613e8a565b9150613f568285613e8a565b9150613f628284613ebb565b9150819050949350505050565b7f45646974696f6e206d7573742062652067726561746572207468616e20300000600082015250565b6000613fa5601e83612e23565b9150613fb082613f6f565b602082019050919050565b60006020820190508181036000830152613fd481613f98565b9050919050565b7f4f776e61626c653a206e6577206f776e657220697320746865207a65726f206160008201527f6464726573730000000000000000000000000000000000000000000000000000602082015250565b6000614037602683612e23565b915061404282613fdb565b604082019050919050565b600060208201905081810360008301526140668161402a565b9050919050565b7f4f776e61626c653a2063616c6c6572206973206e6f7420746865206f776e6572600082015250565b60006140a3602083612e23565b91506140ae8261406d565b602082019050919050565b600060208201905081810360008301526140d281614096565b9050919050565b7f4552433732313a207472616e736665722066726f6d20696e636f72726563742060008201527f6f776e6572000000000000000000000000000000000000000000000000000000602082015250565b6000614135602583612e23565b9150614140826140d9565b604082019050919050565b6000602082019050818103600083015261416481614128565b9050919050565b7f4552433732313a207472616e7366657220746f20746865207a65726f2061646460008201527f7265737300000000000000000000000000000000000000000000000000000000602082015250565b60006141c7602483612e23565b91506141d28261416b565b604082019050919050565b600060208201905081810360008301526141f6816141ba565b9050919050565b7f4552433732313a20617070726f766520746f2063616c6c657200000000000000600082015250565b6000614233601983612e23565b915061423e826141fd565b602082019050919050565b6000602082019050818103600083015261426281614226565b9050919050565b7f4552433732313a207472616e7366657220746f206e6f6e20455243373231526560008201527f63656976657220696d706c656d656e7465720000000000000000000000000000602082015250565b60006142c5603283612e23565b91506142d082614269565b604082019050919050565b600060208201905081810360008301526142f4816142b8565b9050919050565b7f4e487b7100000000000000000000000000000000000000000000000000000000600052601260045260246000fd5b7f455243373231456e756d657261626c653a20636f6e736563757469766520747260008201527f616e7366657273206e6f7420737570706f727465640000000000000000000000602082015250565b6000614386603583612e23565b91506143918261432a565b604082019050919050565b600060208201905081810360008301526143b581614379565b9050919050565b600081519050919050565b600082825260208201905092915050565b60006143e3826143bc565b6143ed81856143c7565b93506143fd818560208601612e34565b61440681612e5e565b840191505092915050565b60006080820190506144266000830187612f5f565b6144336020830186612f5f565b6144406040830185612ff5565b818103606083015261445281846143d8565b905095945050505050565b60008151905061446c81612d30565b92915050565b60006020828403121561448857614487612cfa565b5b60006144968482850161445d565b91505092915050565b60006144aa82612eca565b91506144b583612eca565b92508282039050818111156144cd576144cc613968565b5b92915050565b7f4e487b7100000000000000000000000000000000000000000000000000000000600052603160045260246000fd5b7f4552433732313a206d696e7420746f20746865207a65726f2061646472657373600082015250565b6000614538602083612e23565b915061454382614502565b602082019050919050565b600060208201905081810360008301526145678161452b565b9050919050565b7f4552433732313a20746f6b656e20616c7265616479206d696e74656400000000600082015250565b60006145a4601c83612e23565b91506145af8261456e565b602082019050919050565b600060208201905081810360008301526145d381614597565b905091905056fea2646970667358221220f6d78fcda5cd50532ebd51fc4b09097c412dd6a1055ad280f21681179830d5f364736f6c63430008120033",
  "linkReferences": {},
  "deployedLinkReferences": {}
}